:100000000C946A040C9492040C9492040C94920440
:100010000C9492040C9492040C9492040C94920408
:100020000C9492040C9492040C94830A0C94F20A9B
:100030000C9492040C9492040C9492040C949204E8
:100040000C9492040C9492040C9492040C949204D8
:100050000C9492040C9492040C9492040C94240D2D
:100060000C9492040C9492040C9492040C949204B8
:100070000C9492040C9492040C9492040C949204A8
:100080000C9492040C9492040C9492040C94920498
:100090000C9492040C9492040C9492040C94920488
:1000A0000C9492040C9492040C94920400000000AE
:1000B0000000000000000000000000000000000040
:1000C0000000000000000000000000000000000030
:1000D0000000000000000000000000000000000020
:1000E0000000000000000000000000000000000010
:1000F0000000000000000000000000000000000000
:1001000000000000000000000000000000000000EF
:1001100000000000000000000000000000000000DF
:1001200000000000000000000000050000000000CA
:1001300000000500000000000000000000000000BA
:10014000000004000002010300000B010600000093
:100150000000000001010101010108010109000A7C
:10016000010109000101010101010101000000007C
:10017000003E5B4F5B3E3E6B4F6B3E1C3E7C3E1C2D
:10018000183C7E3C181C577D571C1C5E7F5E1C0073
:10019000183C1800FFE7C3E7FF0018241800FFE72A
:1001A000DBE7FF30483A060E2629792926407F05ED
:1001B0000507407F05253F5A3CE73C5A7F3E1C1C03
:1001C00008081C1C3E7F14227F22145F5F005F5FC3
:1001D00006097F017F006689956A606060606094AF
:1001E000A2FFA29408047E040810207E20100808B4
:1001F0002A1C08081C2A08081E101010100C1E0CBF
:100200001E0C30383E3830060E3E0E060000000050
:100210000000005F00000007000700147F147F1437
:10022000242A7F2A1223130864623649562050007C
:1002300008070300001C2241000041221C002A1C68
:100240007F1C2A08083E0808008070300008080853
:100250000808000060600020100804023E51494573
:100260003E00427F400072494949462141494D3391
:100270001814127F1027454545393C4A49493141F8
:10028000211109073649494936464949291E0000C6
:10029000140000004034000000081422411414141B
:1002A0001414004122140802015909063E415D5907
:1002B0004E7C1211127C7F494949363E4141412210
:1002C0007F4141413E7F494949417F090909013E3A
:1002D000414151737F0808087F00417F4100204061
:1002E000413F017F081422417F404040407F021C73
:1002F000027F7F0408107F3E4141413E7F0909098A
:10030000063E4151215E7F09192946264949493255
:1003100003017F01033F4040403F1F2040201F3F1B
:100320004038403F631408146303047804036159A0
:10033000494D43007F4141410204081020004141E2
:10034000417F04020102044040404040000307088E
:100350000020545478407F2844443838444444288A
:10036000384444287F385454541800087E09021831
:10037000A4A49C787F0804047800447D40002040B9
:10038000403D007F1028440000417F40007C0478FD
:1003900004787C080404783844444438FC18242445
:1003A0001818242418FC7C080404084854545424C5
:1003B00004043F44243C4040207C1C2040201C3C42
:1003C0004030403C44281028444C9090907C446439
:1003D000544C4400083641000000770000004136CC
:1003E000080002010204023C2623263C1EA1A16152
:1003F000123A4040207A3854545559215555794184
:100400002154547841215554784020545579400C5A
:100410001E5272123955555559395454545939553B
:100420005454580000457C410002457D420001457E
:100430007C40F0292429F0F0282528F07C545545EB
:10044000002054547C547C0A097F4932494949327E
:100450003248484832324A4848303A4141217A3A93
:1004600042402078009DA0A07D39444444393D405D
:1004700040403D3C24FF2424487E4943662B2FFC0A
:100480002F2BFF0929F620C0887E090320545479B8
:10049000410000447D413048484A32384040227A89
:1004A000007A0A0A727D0D19317D2629292F282606
:1004B0002929292630484D4020380808080808080E
:1004C0000808382F10C8ACBA2F102834FA00007B67
:1004D000000008142A142222142A1408950022006D
:1004E00095AA005500AAAA55AA55AA000000FF0027
:1004F000101010FF00141414FF001010FF00FF1064
:1005000010F010F0141414FC001414F700FF000095
:10051000FF00FF1414F404FC141417101F10101F14
:10052000101F1414141F00101010F0000000001F02
:10053000101010101F10101010F010000000FF100D
:100540001010101010101010FF10000000FF140009
:1005500000FF00FF00001F10170000FC04F414143B
:100560001710171414F404F40000FF00F714141407
:1005700014141414F700F7141414171410101F1087
:100580001F141414F4141010F010F000001F101FAA
:100590000000001F14000000FC140000F010F01018
:1005A00010FF10FF141414FF141010101F0000008F
:1005B00000F010FFFFFFFFFFF0F0F0F0F0FFFFFF93
:1005C0000000000000FFFF0F0F0F0F0F38444438EA
:1005D000447C2A2A3E147E02020606027E027E0225
:1005E00063554941633844443C04407E201E200644
:1005F000027E020299A5E7A5991C2A492A1C4C7281
:1006000001724C304A4D4D303048784830BC625A07
:10061000463D3E494949007E0101017E2A2A2A2A97
:100620002A44445F444440514A444040444A514073
:100630000000FF0103E080FF000008086B6B083634
:1006400012362436060F090F0600001818000000A5
:100650001010003040FF0101001F01011E00191D94
:100660001712003C3C3C3C0000000000F0F89C8E5F
:100670008783878E9CF8F00000FEFF0303030303CB
:10068000070EFCF80000FEFF0303030303070EFC44
:10069000F80000FFFF00000000000000FFFF000066
:1006A000FEFF8383838383C7EE7C380000F8FC0E53
:1006B00007030303070EFCF800003F7FE0C08080C3
:1006C000C0E07F3FFFFF01010101010101FFFF00C9
:1006D00000FFFF0C0C0C0C1C3E77E3C100007FFFF9
:1006E000C0C0C0C0C0E0703F1F00001F3F70E0C02E
:1006F000C0C0E0703F1F00007FFFC1C1C1C1C1E3A6
:10070000773E1C00001F3F70E0C0C0C0E0703F1F7C
:10071000000000000001FFFF01000000D5F08D1473
:10072000A1C881CFD9F1AF20000808000000000067
:100730000000000101010101010101FF01010101AE
:1007400001010101010101010101FFFF00000000A1
:100750000000FFFF010101010101FFFF0000000097
:1007600000000000000000000000FF010000000089
:100770000000010100000000000000000000000077
:10078000000001FF00000000000001010000000067
:100790000000FF08087EC381898189C37E7EC389EA
:1007A000818981C37E00000000000000000000007D
:1007B0000000000000000000000000000000000039
:1007C0000000000000000000000000000000000029
:1007D0000000000000000000000000000000000019
:1007E0000000000000000000000000000000000009
:1007F00000000000000000000000000000000000F9
:1008000000000000000000000000000000000000E8
:1008100000000000000000000000000000000000D8
:1008200000000005000000000000000500000000BE
:1008300000000000000000000000000400000201B1
:100840000300000B0106000000000000000101038E
:1008500000000208010109000A010109000101016B
:100860000101010101080B0002020200000904005D
:10087000000102020000052400100105240101010D
:100880000424020605240600010705810310004028
:1008900009040100020A00000007050202400000EE
:1008A000070583024000000403090412010002EF5F
:1008B00002014041233680000101020301417264BC
:1008C00075696E6F204C4C430041726475626F799C
:1008D0000000A10D11241FBECFEFDAE0DEBFCDBFB7
:1008E00011E0A0E0B1E0EAEEF9E202C005900D925D
:1008F000A234B107D9F725E0A2E4B1E001C01D920E
:10090000A83EB207E1F714E0CAE6D4E004C021979C
:10091000FE010E94ED14C936D107C9F70E94C60D29
:100920000C94F3140C940000E2E9F1E0A0E0B8E0CC
:1009300000800EBC8111012C1197A0FDFDCF01920A
:10094000B9F70DB40895FC0180919101882311F14C
:100950003FB7F89482E08093E9002091F200822F63
:1009600090E01816190614F481E090E0882339F01D
:10097000289844E6409390014091F100408322235F
:1009800039F02091F200211103C02BE62093E800FA
:100990003FBF08958FEF9FEF08952FB7F89483E03E
:1009A0008093E9009091E800892F807295FF04C040
:1009B0009091F20080E4891B2FBF089580918801F7
:1009C00081110DC082E08093840184E080938501D1
:1009D000109287011092860181E08093880184E85B
:1009E00091E00895CF93DF931F92CDB7DEB769836F
:1009F000DC01ED91FC910280F381E02D41E050E0BB
:100A0000BE016F5F7F4F09950F90DF91CF910895E1
:100A100083E08093E9008091F200882319F08AE353
:100A20008093E80008950E94CD0490E00895CF934C
:100A3000DF931F92CDB7DEB7FC018485958597FDC6
:100A400008C02FEF3FEF358724870F90DF91CF91BC
:100A50000895CE0101960E94A304019719F489819B
:100A600090E0F3CF8FEF9FEFF0CF0F931F93CF93D3
:100A7000DF931F92CDB7DEB78C01FC01848595858D
:100A800097FF0BC0CE0101960E94A304019771F459
:100A9000898190E0F80195878487F80184859585A0
:100AA0000F90DF91CF911F910F9108958FEF9FEFDE
:100AB000F1CFFC018485958597FD0BC09FB7F89415
:100AC00082E08093E9008091F2009FBF90E0019660
:100AD00008959FB7F89482E08093E9008091F20036
:100AE0009FBF90E0089540917E0150917F01209139
:100AF0007C0130917D0142175307B4F49091E800D6
:100B00009570E1F39091E80092FD19C08093F10097
:100B100080917E0190917F0101968F739927892B97
:100B200019F48EEF8093E80080917E0190917F010F
:100B3000019690937F0180937E0181E0089580E08B
:100B40000895DF92EF92FF920F931F93CF93DF935D
:100B5000D82E8A01EB017B01E40EF51ECE15DF05D0
:100B600059F0D7FE12C0FE0184910E9473052196B0
:100B70008111F4CF0FEF1FEFC801DF91CF911F91CB
:100B80000F91FF90EF90DF9008958881EECF0F9343
:100B90001F93CF93DF931F92CDB7DEB782E0898397
:100BA00042E450E065E678E080E80E94A1050E94FA
:100BB000DE04DC0112960D911C910115110589F0DE
:100BC000D801ED91FC910280F381E02DBE016F5FB1
:100BD0007F4FC801099597FD04C0F8010085118574
:100BE000ECCF89810F90DF91CF911F910F910895E4
:100BF000615030F02091F100FC0120830196F8CF84
:100C0000289884E6809390010895FC010E949C0638
:100C1000319728F068517C4F8F4F9F4FF9CFAB0130
:100C2000FC010E949C06641775078E079F07C8F396
:100C300008958F929F92AF92BF92CF92DF92EF92E0
:100C4000FF920F931F93CF93DF936C017B018A0177
:100C500080910B01882309F45AC080919101882367
:100C600009F455C08091830180FF05C08091E000A8
:100C700082608093E000E801B12C8AEFA82E93E017
:100C8000892E2AE3922E209711F4BB20C9F10E94ED
:100C9000CD04811108C0AA94AA20C9F181E090E096
:100CA0000E940506F0CF8C171D0611F00CF08C2F5A
:100CB0009FB7F8948092E9002091E80025FD02C0DA
:100CC0009FBFE1CF282F30E0C21BD30BF70181502B
:100CD00020F041914093F100FACFE20EF31EBB20C9
:100CE00021F09092E800B12CEBCF8091E80085FDD7
:100CF000E7CF9092E800BB24B394209709F3F3CF99
:100D00005D9884E680938201101611063CF081E024
:100D100090E0F6019383828310E000E0C801DF9148
:100D2000CF911F910F91FF90EF90DF90CF90BF90E8
:100D3000AF909F908F900895A8E7B1E02FB7F894F7
:100D40007D918D919C9166B52FBFA89B05C06F3F8B
:100D500018F47F5F8F4F9F4F22E0660F771F881F29
:100D6000991F2A95D1F70895AF92BF92CF92DF9243
:100D7000EF92FF920F931F93CF93DF936C017B0150
:100D80008B01040F151FEB015E01AE18BF08C017E1
:100D9000D10759F06991D601ED91FC910190F08154
:100DA000E02DC6010995892B79F7C501DF91CF9117
:100DB0001F910F91FF90EF90DF90CF90BF90AF9079
:100DC00008954F925F926F927F928F929F92AF920F
:100DD000BF92CF92DF92EF92FF920F931F93CF9328
:100DE000DF934C015901FC2DC02FD0E0CE01880DBE
:100DF000991D181619060CF06CC020E88216910493
:100E00000CF067C09B012E0D311D121613060CF05D
:100E100060C0603471050CF05CC04115510509F4E7
:100E200058C0E62FE770FE2EDB0177FD179633E002
:100E3000B595A7953A95E1F73A2F77FF04C0FF20C3
:100E400011F03FEF3A0F662777276819790997FC69
:100E500002C070E060E0803891050CF44BC090E86F
:100E60009819961BA32F032E000CBB0B1A2F10955D
:100E70003F3F0CF010E021E08E2D877009F420E058
:100E8000E694E694E694E20EAE0DB11D19971CF0BF
:100E900028E0E22EE31AE11A310F20E83203D001F4
:100EA0001124A80DB91DA60FB71F019F600D711D5C
:100EB0001124460F571F0F2D0F2C000C110BF33070
:100EC00009F41CC1C8F4F13009F4D0C0F23009F4BF
:100ED0007CC0DF91CF911F910F91FF90EF90DF9039
:100EE000CF90BF90AF909F908F907F906F905F90CA
:100EF0004F900895902FB5CFFA3FB1F1232F2E0DCB
:100F0000FB3F39F7321729F3BD016E567E4FD12CC6
:100F1000C12CC91608F0A4C0FA01EC0DFD1DE49126
:100F2000F0E04F01002E02C0880C991C0A94E2F7F1
:100F300037FD06C0FB018081E82CE0948E21808380
:100F4000FF2061F0373054F45B01F0E8AF0EB11CC4
:100F5000E92CE094F50180818E218083FFEFCF1A88
:100F6000DF0A6F5F7F4FD5CF232F2E0D321709F485
:100F7000B0CFBD016E567E4FD12CC12CC91608F0E2
:100F800069C0FA01EC0DFD1DE491F0E04F01002E67
:100F900002C0880C991C0A94E2F737FD04C0FB01DB
:100FA000808188298083FF2051F0373044F45B0131
:100FB000F0E8AF0EB11CF501808189298083FFEF35
:100FC000CF1ADF0A6F5F7F4FD9CF6FEF70E00F2C22
:100FD00002C0660F771F0A94E2F760957095772E2E
:100FE000232F2E0D321709F474CFFD01EE56FE4F5C
:100FF0006F01B12CA12CA91638F5FA01EA0DFB1DE1
:10100000E491F0E02F01002E02C0440C551C0A941C
:10101000E2F737FD05C0F6018081862384298083AD
:10102000FF2059F037304CF44601F0E88F0E911C48
:10103000F4018081872185298083FFEFAF1ABF0AE1
:101040008FEFC81AD80AD7CF3F5F4C0F5D1FA0584B
:10105000BF4FC8CF3F5F4C0F5D1FA058BF4F86CF1B
:101060003F5F4C0F5D1FA058BF4F4CCF6A0D7B1DDB
:10107000232F2E0D321709F42CCFFD01EE56FE4F13
:101080006F01B12CA12CA91688F5FB01EA0DFB1DFF
:101090008490912C002E02C0880C991C0A94E2F7CF
:1010A00080949094FA01EA0DFB1D6490712C002E3F
:1010B00002C0660C771C0A94E2F737FD05C0F60102
:1010C0008081882186298083FF2049F037303CF4D5
:1010D000F601E058FF4F8081892187298083FFEF47
:1010E000AF1ABF0A8FEFC81AD80ACDCF3F5F4C0F97
:1010F0005D1F6C0F7D1FA058BF4FBCCFC92ED12CD8
:10110000FA01E60FF71FAE56BE4F00E810E00C19CB
:101110001D09CC19DD09BE01660F771F41E050E0C3
:101120006A010F2C01C0CC0C0A94EAF7592F2E2D1E
:10113000792ECF93DF93ED01EF96EF96229685906F
:10114000A590FF2059F08C9C4001AC9C5001373099
:101150002CF4E880B094EB20E928E99233233AF0AC
:10116000EC90A094EA20E828ED920C94B80811962F
:101170005A9529F72A9551F0572D33951124E60FEA
:10118000F11DA00FB11DC00FD11DD9CFDF91CF919F
:1011900011249FCE90E00C9405068FB18095807F3E
:1011A000669B88601C9B846008956F927F928F92EB
:1011B0009F92AF92BF92CF92DF92EF92FF920F93E6
:1011C0001F93CF93DF9300D01F92CDB7DEB76D3062
:1011D00089F0A0904C01B0904D016A30F9F4109262
:1011E0004F0110924E019501285F3F4F30934D0102
:1011F00020934C0181E090E00F900F900F90DF91D1
:10120000CF911F910F91FF90EF90DF90CF90BF9003
:10121000AF909F908F907F906F90089500914E01B6
:1012200010914F0135E0639FF0011124E459FE4F06
:10123000A801712C80E1682E98E0D92EDA0C75E0B7
:1012400060E0771621F0CF0101966491FC01C501A1
:1012500040385105D0F480349105B8F4A62FA17020
:10126000CA2E9C0171E021FD74E020FD770F22FD64
:101270007295287F629ED0011124A40FAE56BE4FF6
:101280000C90072AC0FE07260C9266950196D8128C
:10129000DFCF73944F5F5F4F86E07812D0CF0A5F45
:1012A0001F4F10934F0100934E01A4CF90914A011C
:1012B000982329F490914B01982381E009F480E070
:1012C000089580E00C949404089590E080E00895DF
:1012D000FC0101900020E9F73197AF01481B590B41
:1012E000BC0184EE95E00C94B4068F929F92AF926D
:1012F000BF920F931F93CF93DF93CDB7DEB7A19724
:101300000FB6F894DEBF0FBECDBF19A2423008F46D
:101310004AE08E010F5D1F4F842E912CB12CA12C21
:10132000A50194010E94FA12E62FB901CA01EA3020
:10133000F4F4E05DD801EE938D01232B242B252BB3
:1013400079F790E080E0109719F0CD010E946809CC
:10135000A1960FB6F894DEBF0FBECDBFDF91CF913F
:101360001F910F91BF90AF909F908F900895E95C6F
:10137000E1CF4F925F926F927F928F929F92AF9246
:10138000BF92CF92DF92EF92FF926B017C01AC0192
:101390009B010E94E8148823C1F083E391E00E943E
:1013A00068097C018FE391E00E9468098E0D9F1D02
:1013B000FF90EF90DF90CF90BF90AF909F908F9075
:1013C0007F906F905F904F90089546015701E89489
:1013D000B7F82FEF3FEF4FE75FE7C501B4010E9479
:1013E000E81481110DC02FEF3FEF4FE75FE7C50114
:1013F000B4010E94891318161CF487E391E0CFCF43
:101400002FEF3FEF4FE75FE4C701B6010E9476146C
:1014100018161CF48BE391E0C2CF2FEF3FEF4FE79C
:101420005FECC701B6010E94891387FDF3CF20E06E
:1014300030E0A901C701B6010E948913B12CA12C8B
:1014400087FF0AC06DE284EE95E00E94D5085C013A
:10145000F7FAF094F7F8F0942AE037ED43EA5BE30B
:10146000C701B6010E941D132B013C010E94951378
:101470006B017C010E94C4139B01AC01C301B2014A
:101480000E941C132B013C014AE0C701B6010E94D7
:1014900075097C01EA0CFB1C6EE284EE95E00E946B
:1014A000D508E80EF91E20E030E040E251E4C30127
:1014B000B2010E947B142B013C010E9495134B0149
:1014C000B12CA12C4AE0C501B4010E947509E80EB7
:1014D000F91EC501B4010E94C4139B01AC01C301F4
:1014E000B2010E941C1320E030E040E251E40E946F
:1014F0007B140E94951390E080E04AE00E947509F9
:10150000E80EF91E4FCF1F920F920FB60F921124C3
:101510008F939F938091E1009091E100937F90934E
:10152000E10083FF0FC01092E90091E09093EB007F
:101530001092EC0092E39093ED001092910198E0EC
:101540009093F00082FF22C093E09093E900909185
:10155000F200992319F09AE39093E80090918201A8
:10156000992341F0909182019150909382019111C1
:1015700001C05D9A90919001992341F09091900162
:10158000915090939001911101C0289A84FF18C046
:101590008091E2008E7E81608093E2008091E10084
:1015A0008F7E8093E100809183018E7E80618093A5
:1015B00083019F918F910F900FBE0F901F901895F0
:1015C00080FFF7CF8091E2008E7E80618093E20001
:1015D0008091E1008E7E8093E100809183018E7E78
:1015E0008160E5CF1F920F920FB60F921124CF9218
:1015F000DF92EF92FF920F931F932F933F934F939E
:101600005F936F937F938F939F93AF93BF93EF936A
:10161000FF93CF93DF93CDB7DEB76C97DEBFCDBF1F
:101620001092E9008091E80083FF25C068E0CE01B8
:1016300045960E94F80582EF8093E8008D8987FF28
:1016400039C09091E80090FFFCCF982F907609F078
:1016500034C19E894F89588D2F89F88C911131C0E2
:10166000803861F5809181018093F1001092F10042
:101670008EEF8093E8006C960FB6F894DEBF0FBE35
:10168000CDBFDF91CF91FF91EF91BF91AF919F912E
:101690008F917F916F915F914F913F912F911F910A
:1016A0000F91FF90EF90DF90CF900F900FBE0F90B3
:1016B0001F9018959EEF9093E800C7CF1092F1000D
:1016C000D5CF913059F48111D3CF4130510581F6F6
:1016D000809181018D7F80938101CACF933049F43D
:1016E0008111C6CF4130510519F680918101826088
:1016F000F2CF953041F48091E80080FFFCCF206864
:101700002093E300B5CF963009F0A9C00B8D1C8D56
:1017100022E01092E90010927F0110927E01F212F5
:101720002EC010927D0110927C010E94C7051F827D
:1017300099E09983FA8291E09E8390EA98879AEFE4
:10174000998720917E0130917F01275F3F4F3C8335
:101750002B838D831092E90010927F0110927E01FD
:1017600010937D0100937C0149E050E0BE016F5F62
:101770007F4F80E00E94A1050E94C70579CF10939A
:101780007D0100937C010E94DE04DC0112960D9124
:101790001C910115110509F451C1D801ED91FC917D
:1017A0000480F581E02DBE016B5E7F4FC801099575
:1017B000009709F03EC1F80100851185EACFF3E0FA
:1017C000FF120EC08F89882309F440C0823061F473
:1017D00040E867E089EC98E00E946E0D811148CFE7
:1017E00081E28093EB0047CF813029F440E86BE041
:1017F0008DEB98E0F1CF833099F70E94DE04DC0195
:101800001296ED90FC908E010F5F1F4F6801E1145E
:10181000F10479F0D701ED91FC910680F781E02D7C
:10182000B801C7010995080F111DF701E084F18483
:10183000EECFD8011C92F60101900020E9F7319714
:10184000BF016C197D0940E0C601C6CF67EA78E0A8
:10185000FB01449150E080E80E94A10509CF973038
:1018600009F4BECF983021F481E08093F10000CFDD
:10187000993009F0FDCE837009F0B2CFEFE0F1E0CE
:1018800081E031E096E32191222371F08093E90019
:101890003093EB00DF0111972C912093EC00909393
:1018A000ED008F5F873079F78EE78093EA00109222
:1018B000EA008F8980939101DBCE8B8D9C8D1092F5
:1018C000E90010927F0110927E0190937D01809338
:1018D0007C01898D811192C08E899D89913A49F44C
:1018E000813209F07DCF47E050E064E071E080E0B4
:1018F000B3CF913209F074CF833269F48F89988D18
:10190000B0E0A0E08093000190930101A093020158
:10191000B0930301ADCE803269F48091E80082FF7C
:10192000FCCF67E084E091E00E94F8058BEF8093A4
:10193000E8009ECE823209F09BCE8F8980930B0106
:10194000EEEFFFE7859194918B3F9C4D51F1E0E0E4
:10195000F8E08091040190910501A0910601B091F9
:101960000701803B9440A105B105F1F480910B0182
:1019700080FD1AC0EE3F8AE0F80789F587E797E710
:1019800091838083809160008093800188E19BE057
:101990000FB6F894A895809360000FBE90936000F6
:1019A00067CEEEEFFAE0D5CF8081918187379747F8
:1019B00009F05ECEA89580916000886180936000F8
:1019C0008091800180936000EE3F2AE0F20789F069
:1019D0008091FE0A9091FF0A9183808349CE808195
:1019E00091818737980751F29093FF0A8093FE0AFE
:1019F000C5CF1092FF0A1092FE0A3ACE0E94DE0472
:101A0000DC0112960D911C910115110509F4E8CE27
:101A1000D801ED91FC910190F081E02DBE016B5E4B
:101A20007F4FC8010995811123CEF80100851185EA
:101A3000EBCF181619060CF41BCED2CEF1E0FF1234
:101A4000BECE6BEA78E004CF0F920FB68F939F93D0
:101A5000EF93FF93809173018D5F8D3708F08D5761
:101A600080937301E4E7F1E080818E4F8083918160
:101A70009F4F918382818F4F828383818F4F838396
:101A8000E8E7F1E080818F5F808381818F4F8183E0
:101A900082818F4F828383818F4F83838FB18F6049
:101AA00066991C9B88278F3681F480917201981B60
:101AB000963068F0E0E0F8E087E78083818388E192
:101AC00080936000F0936000FFCF90937201FF91CC
:101AD000EF919F918F910FBE0F901895EF92FF920B
:101AE0000F931F93CF93DF93F82E192FE62E042F19
:101AF00081E0860F880F0E94730583E00E947305C2
:101B0000CF2DD12FEC0EFD2EF11CCE15DF05B9F037
:101B100007FF13C0FE0184910E947305182F80E017
:101B20000E947305812321968111EFCFDF91CF9120
:101B30001F910F91FF90EF9008958881EDCF81E084
:101B4000F5CFE2E9F5E01382128288EE93E0A0E09F
:101B5000B0E084839583A683B78389E191E0918384
:101B600080838FEF9FEF9587848780910C01909100
:101B70000D019093E3058093E205E4EEF5E0138216
:101B800012828BE291E0918380830895CDB7DEB716
:101B90002A97DEBFCDBF789483E084BD83E085BD06
:101BA00081E080936E00E1E8F0E083E08083E0E88C
:101BB00081E08083E1E983E08083E0E981E0808364
:101BC000E1EC87E08083E3EC81E08083E0EC82E07D
:101BD0008083E2EC81E08083EAE787E080838068AD
:101BE0008083109291011092810110928301809163
:101BF000D70081608093D70080EA8093D80089B5B0
:101C0000806189BD89B5826089BD09B400FEFDCFC0
:101C100081E090E00E9405068091D8008F7C806171
:101C20008093D8008091E000807F8093E0008091D5
:101C3000E1008E7E8093E1008DE08093E200559A72
:101C4000209A81EC80937C0081EF85B987EE84B97E
:101C500082E38BB982EF8AB9769A6E9880EF81BB66
:101C600010BA80E58CBD81E08DBD85E00E94CA0878
:101C70005F9A85E00E94CA085C98ECE1F7E08591E4
:101C80008EBD00000DB407FEFDCFE932C1F75C9AAE
:101C900081E88093640081E0809365000E9461097F
:101CA0000E94CD0887FF15C05C9885EA8EBD0000B4
:101CB0000DB407FEFDCF5C9A2E982F982D98809139
:101CC000640080628093640081E083BF889513BEC6
:101CD000FCCF0E94CD0882FF37C02D980E94CD080E
:101CE00084788438A1F42D9A88EC0E94CA082F9831
:101CF0006FEF82E090E00E94E81284EF91E00E9492
:101D000005062F9A0E94CD0884788438D9F30E9462
:101D1000CD0884718431A1F42D9A88EC0E94CA0800
:101D20002E9860E082E090E00E94E81284EF91E05B
:101D30000E9405062E9A0E94CD0884718431D9F341
:101D400088EC0E94CA08C5CF2D9A82E090E00E94DC
:101D5000E012882381F13E9A3F9A81E090E00E9450
:101D6000E012082F047081FF0CC001112E9891EF32
:101D7000892E99249A940E94CD0886FF1FC02E9A1E
:101D80002F9A82E30E94CA080E94CD088111F9CFE0
:101D9000BAE22B2EB7E03B2E10917001198311236C
:101DA00009F4AFC01092700180E090E0892BA1F39C
:101DB0000E940000F1CF3E983F98CFCF002331F032
:101DC00014E08116910411F42E9A2F9881E00E945C
:101DD0009404282D2770A22EA40113E05595479551
:101DE0001A95E1F79A013695322F222737952795D4
:101DF0002E563E4F70E060E04E3F8FEF580761F186
:101E000090E080E0DB01A459B94F7901E0E8EE0EE3
:101E1000F11CFD01E80FF91FE491F0E03F010A2CED
:101E200002C0660C771C0A94E2F74F3F540739F062
:101E30006901C80ED91EF601B488B628B48AAA2052
:101E400039F06701C80ED91EF60114891729148BC1
:101E5000019688359105E9F64F5F5F4F20583F4F57
:101E6000685A7F4F603B710539F60E9461098FE027
:101E70000E94CA08FFEF8F1A9F0A19E18116910488
:101E800009F079CF002311F02F9A2D9880E991E085
:101E90000E9405062D9A81E090E00E94E01280FFEA
:101EA00070CF8AE090E00E94E0129FEF980F9E3F73
:101EB00008F067CF22E330E030934F0120934E01CA
:101EC00028E330E030934D0120934C012BE030E0CB
:101ED0003A832983682F84EE95E00E94D508898192
:101EE0009A810E94E012A981BA811196BA83A983CE
:101EF000519781F70E94610988EE93E00E940506E0
:101F000040CF8091740190917101282F291B2031BD
:101F100040F42F3009F448CF81E083BF889513BE89
:101F200043CF31E03093700180937101EEE6F1E030
:101F30008081918101968083918380914B01809370
:101F40004A010E94CD0880934B01E2E9F1E09981BA
:101F500091119FEF8FEF9193919391939193815072
:101F6000D0F710924D0110924C0110924F01109237
:101F70004E0180916D01882329F0813061F00E942B
:101F8000610912CF88E00E9456098823C1F3A1E0BD
:101F9000A0936D01F4CFB12CA12CB5010B2C000C3A
:101FA000880B990B0E94C613209154013091550162
:101FB00040915601509157010E941C130E948E13AC
:101FC0007A836983685F7F4F6934710508F064C064
:101FD0002501440C551C4A0C5B1C712C612C912C66
:101FE000812CB301072C000C880B990B0E94C6139F
:101FF0002091500130915101409152015091530173
:102000000E941C130E948E13CB019B01285F3F4F3F
:102010002938310508F035C0E0910C01F0910D012F
:102020009201280D391DE20FF31F6491E9E2F7E0F8
:102030000491F101E4904BE257E06623D1F021E0F6
:1020400030E04E2D477011F430E020E04E2D4695E3
:1020500046954695420F532F511D049F9001059FB1
:10206000300D1124629FA001639F500D1124455D26
:10207000584FF2E0CF2E30E020E069817A810E9453
:10208000E106FFEF8F1A9F0A18E0610E711C28E12C
:102090008216910409F0A5CF38E0A30EB11C80E4AC
:1020A000A816B10409F079CF0E94CD0886FF18C0A8
:1020B00028EB3EE145E05EE36091650170916601C9
:1020C00080916701909168010E941D1360936501E2
:1020D00070936601809367019093680110925A0192
:1020E0000E94CD0885FF19C028EB3EE145E05EE384
:1020F000609165017091660180916701909168011E
:102100000E941C13609365017093660180936701C0
:102110009093680181E080935A0180E80E945609FB
:10212000882361F080E090E0A0E8BFEB8093690134
:1021300090936A01A0936B01B0936C0160915D0173
:1021400070915E0180915F01909160010E94B909D8
:1021500060916501709166018091670190916801BD
:102160000E94B9096091690170916A0180916B01C7
:1021700090916C010E94B9092FE832EC45EF5CE3C5
:102180006091690170916A0180916B0190916C017D
:102190000E941D134B015C018092690190926A01BB
:1021A000A0926B01B0926C012FE135E84BE65FE342
:1021B000609165017091660180916701909168015D
:1021C0000E947B14609365017093660180936701A0
:1021D0009093680120915D0130915E0140915F0113
:1021E000509160010E941D136B017C0120916101DF
:1021F000309162014091630150916401C501B401C5
:102200000E941D132B013C0120E030E040E05EE322
:10221000C701B6010E947B1469837A838B839C83F8
:1022200020E030E040E051E4C701B6010E941D13F8
:102230000E948E134B0120E030E040E05EE3C301DA
:10224000B2010E947B1420E030E040EC51E40E9497
:102250007B146D837E838F839887A091E205B09174
:10226000E305BA87A987B40197FE02C0695F7F4F73
:10227000E3E075956795EA95E1F7072E000C880B6A
:10228000990B0E94C6132D813E814F8158850E9473
:102290001D130E949513E985FA856E0F7F1FFB01C0
:1022A0006491662309F46EC1F8E08F1A9108B401B5
:1022B000990C880B990B0E94C6136B017C0110923C
:1022C00065011092660110926701109268011092E8
:1022D0005B01C701B6010E948E134B0177FF02C05C
:1022E000695F7F4F53E0759567955A95E1F7072E23
:1022F000000C880B990B0E94C6132D813E814F81E3
:1023000058850E941D130E94951329853A85620FF6
:10231000731FFB016491662309F438C1FFEF8F1A24
:102320009F0AB401990C880B990B0E94C6136B018C
:102330007C01109265011092660110926701109263
:10234000680110925C0120E030E040E051E4C301FC
:10235000B2010E941D130E948E134B0177FF02C031
:10236000695F7F4F43E0759567954A95E1F7072EC2
:10237000000C880B990B0E94C61320E030E040EC63
:1023800051E40E947B1429813A814B815C810E9437
:102390001D130E94951329853A85620F731FFB0157
:1023A0006491662399F0F8E08F1A9108B401990CB2
:1023B000880B990B0E94C6132B013C0110926901F6
:1023C00010926A0110926B0110926C01C301B2016C
:1023D0000E948E139B0177FF02C0295F3F4FB90116
:1023E00033E0759567953A95E1F7072E000C880B59
:1023F000990B0E94C61320E030E040EC51E40E94AB
:102400007B1429813A814B815C810E941D130E94BB
:10241000951329853A85620F731FFB016491C09261
:102420005D01D0925E01E0925F01F0926001409206
:102430006101509262016092630170926401809028
:10244000500190905101A0905201B090530120E0B2
:1024500030E0A901C501B4010E94891318160CF4DB
:1024600099C081E08093580120E030E040E852E4D8
:10247000C501B4010E94761487FF96C020E030E0C9
:1024800048E652E4C701B6010E94761487FF95C062
:1024900080915901882361F020E030E040E053E46E
:1024A000C701B6010E948913181614F01092590141
:1024B00080915801811114C080915901811110C07F
:1024C00020E030E040E852E4C701B6010E941C134E
:1024D0006093500170935101809352019093530186
:1024E000209154013091550140915601509157016E
:1024F000C301B2010E941C130E948E134B01209154
:102500005001309151014091520150915301C70146
:10251000B6010E941C130E948E13CB01E3E9F7E081
:102520000491E4E9F7E0E49020915A0145E957E08D
:102530002223A1F021E030E04E2D477011F430E06D
:1025400020E04E2D469546954695240F311D029F5D
:10255000A001039F500D11244B56584F22E0C22E6C
:1025600030E020E0B4010E94E10688E00E945609B4
:10257000882309F404CD85EA97E090930D018093B8
:102580000C01FDCC81E080935B01A3CE81E08093C0
:102590005C01D9CE20E030E040E852E4C501B4014E
:1025A0000E94761487FD03C081E0809359018091D9
:1025B0005801882309F46CCF61CF1092580168CF7D
:1025C000F999FECF92BD81BDF89A992780B50895FB
:1025D000262FF999FECF92BD81BDF89A019700B4DC
:1025E000021639F01FBA20BD0FB6F894FA9AF99A7C
:1025F0000FBE0895A1E21A2EAA1BBB1BFD010DC040
:10260000AA1FBB1FEE1FFF1FA217B307E407F507A2
:1026100020F0A21BB30BE40BF50B661F771F881F7E
:10262000991F1A9469F760957095809590959B0114
:10263000AC01BD01CF0108955058BB27AA270E94C5
:1026400034130C943C140E942E1438F00E9435145C
:1026500020F039F49F3F19F426F40C942B140EF457
:10266000E095E7FB0C942514E92F0E944D1458F3D4
:10267000BA17620773078407950720F079F4A6F567
:102680000C946F140EF4E0950B2EBA2FA02D0B01B5
:10269000B90190010C01CA01A0011124FF27591BA7
:1026A00099F0593F50F4503E68F11A16F040A22FAD
:1026B000232F342F4427585FF3CF4695379527951E
:1026C000A795F0405395C9F77EF41F16BA0B620B1D
:1026D000730B840BBAF09150A1F0FF0FBB1F661F64
:1026E000771F881FC2F70EC0BA0F621F731F841FA7
:1026F00048F4879577956795B795F7959E3F08F0CD
:10270000B0CF9395880F08F09927EE0F979587958E
:1027100008950E94011408F481E008950E94951321
:102720006894B1110C94701408950E94551488F0A7
:102730009F5798F0B92F9927B751B0F0E1F0660F85
:10274000771F881F991F1AF0BA95C9F714C0B130C6
:1027500091F00E946F14B1E008950C946F14672FEC
:10276000782F8827B85F39F0B93FCCF386957795F5
:102770006795B395D9F73EF49095809570956195DE
:102780007F4F8F4F9F4F0895E89409C097FB3EF409
:1027900090958095709561957F4F8F4F9F4F9923AE
:1027A000A9F0F92F96E9BB279395F695879577952C
:1027B0006795B795F111F8CFFAF4BB0F11F460FFEC
:1027C0001BC06F5F7F4F8F4F9F4F16C0882311F044
:1027D00096E911C0772321F09EE8872F762F05C058
:1027E000662371F096E8862F70E060E02AF09A95F3
:1027F000660F771F881FDAF7880F9695879597F9E8
:102800000895990F0008550FAA0BE0E8FEEF161681
:102810001706E807F907C0F012161306E407F507D4
:1028200098F0621B730B840B950B39F40A2661F048
:10283000232B242B252B21F408950A2609F4A140EB
:10284000A6958FEF811D811D089597F99F6780E8F8
:1028500070E060E008959FEF80EC089500240A94F2
:102860001616170618060906089500240A9412166B
:102870001306140605060895092E0394000C11F49E
:10288000882352F0BB0F40F4BF2B11F460FF04C04B
:102890006F5F7F4F8F4F9F4F089557FD9058440FA4
:1028A000551F59F05F3F71F04795880F97FB991FAF
:1028B00061F09F3F79F0879508951216130614066C
:1028C000551FF2CF4695F1DF08C0161617061806F9
:1028D000991FF1CF86957105610508940895E894D4
:1028E000BB2766277727CB0197F908950E9401142B
:1028F00008F48FEF08950E948E140C943C140E94EB
:102900002E1438F00E94351420F0952311F00C9409
:1029100025140C942B1411240C9470140E944D1443
:1029200070F3959FC1F3950F50E0551F629FF00122
:10293000729FBB27F00DB11D639FAA27F00DB11D3B
:10294000AA1F649F6627B00DA11D661F829F2227C4
:10295000B00DA11D621F739FB00DA11D621F839F4B
:10296000A00D611D221F749F3327A00D611D231F21
:10297000849F600D211D822F762F6A2F11249F576F
:1029800050409AF0F1F088234AF0EE0FFF1FBB1F72
:10299000661F771F881F91505040A9F79E3F510531
:1029A00080F00C9425140C9470145F3FE4F3983E6F
:1029B000D4F3869577956795B795F795E7959F5FDB
:1029C000C1F7FE2B880F911D9695879597F908956D
:1029D0000E940114880B990B0895EE0FFF1F0590BC
:0A29E000F491E02D0994F894FFCF64
:1029EA00FFFFFFFF00E1000000000000AC0000C193
:1029FA00808100000000000000F204190613050897
:102A0A000559051705350500000000D508B4066507
:102A1A000964096E616E00696E66006F7666000D64
:022A2A000A00A0
:00000001FF
