:020000040000FA
:100000000C946A040C9492040C9492040C94920440
:100010000C9492040C9492040C9492040C94920408
:100020000C9492040C9492040C94830A0C94F20A9B
:100030000C9492040C9492040C9492040C949204E8
:100040000C9492040C9492040C9492040C949204D8
:100050000C9492040C9492040C9492040C94240D2D
:100060000C9492040C9492040C9492040C949204B8
:100070000C9492040C9492040C9492040C949204A8
:100080000C9492040C9492040C9492040C94920498
:100090000C9492040C9492040C9492040C94920488
:1000A0000C9492040C9492040C94920400000000AE
:1000B0000000000000000000000000000000000040
:1000C0000000000000000000000000000000000030
:1000D0000000000000000000000000000000000020
:1000E0000000000000000000000000000000000010
:1000F0000000000000000000000000000000000000
:1001000000000000000000000000000000000000EF
:1001100000000000000000000000000000000000DF
:1001200000000000000001000000050000000000C9
:1001300000000500000000000000000000000000BA
:10014000000004000002010300000B030000000097
:100150000000000001010101010108010109000A7C
:100160000101090A01010101010101010000000072
:10017000003E5B4F5B3E3E6B4F6B3E1C3E7C3E1C2D
:10018000183C7E3C181C577D571C1C5E7F5E1C0073
:10019000183C1800FFE7C3E7FF0018241800FFE72A
:1001A000DBE7FF30483A060E2629792926407F05ED
:1001B0000507407F05253F5A3CE73C5A7F3E1C1C03
:1001C00008081C1C3E7F14227F22145F5F005F5FC3
:1001D00006097F017F006689956A606060606094AF
:1001E000A2FFA29408047E040810207E20100808B4
:1001F0002A1C08081C2A08081E101010100C1E0CBF
:100200001E0C30383E3830060E3E0E060000000050
:100210000000005F00000007000700147F147F1437
:10022000242A7F2A1223130864623649562050007C
:1002300008070300001C2241000041221C002A1C68
:100240007F1C2A08083E0808008070300008080853
:100250000808000060600020100804023E51494573
:100260003E00427F400072494949462141494D3391
:100270001814127F1027454545393C4A49493141F8
:10028000211109073649494936464949291E0000C6
:10029000140000004034000000081422411414141B
:1002A0001414004122140802015909063E415D5907
:1002B0004E7C1211127C7F494949363E4141412210
:1002C0007F4141413E7F494949417F090909013E3A
:1002D000414151737F0808087F00417F4100204061
:1002E000413F017F081422417F404040407F021C73
:1002F000027F7F0408107F3E4141413E7F0909098A
:10030000063E4151215E7F09192946264949493255
:1003100003017F01033F4040403F1F2040201F3F1B
:100320004038403F631408146303047804036159A0
:10033000494D43007F4141410204081020004141E2
:10034000417F04020102044040404040000307088E
:100350000020545478407F2844443838444444288A
:10036000384444287F385454541800087E09021831
:10037000A4A49C787F0804047800447D40002040B9
:10038000403D007F1028440000417F40007C0478FD
:1003900004787C080404783844444438FC18242445
:1003A0001818242418FC7C080404084854545424C5
:1003B00004043F44243C4040207C1C2040201C3C42
:1003C0004030403C44281028444C9090907C446439
:1003D000544C4400083641000000770000004136CC
:1003E000080002010204023C2623263C1EA1A16152
:1003F000123A4040207A3854545559215555794184
:100400002154547841215554784020545579400C5A
:100410001E5272123955555559395454545939553B
:100420005454580000457C410002457D420001457E
:100430007C40F0292429F0F0282528F07C545545EB
:10044000002054547C547C0A097F4932494949327E
:100450003248484832324A4848303A4141217A3A93
:1004600042402078009DA0A07D39444444393D405D
:1004700040403D3C24FF2424487E4943662B2FFC0A
:100480002F2BFF0929F620C0887E090320545479B8
:10049000410000447D413048484A32384040227A89
:1004A000007A0A0A727D0D19317D2629292F282606
:1004B0002929292630484D4020380808080808080E
:1004C0000808382F10C8ACBA2F102834FA00007B67
:1004D000000008142A142222142A1408950022006D
:1004E00095AA005500AAAA55AA55AA000000FF0027
:1004F000101010FF00141414FF001010FF00FF1064
:1005000010F010F0141414FC001414F700FF000095
:10051000FF00FF1414F404FC141417101F10101F14
:10052000101F1414141F00101010F0000000001F02
:10053000101010101F10101010F010000000FF100D
:100540001010101010101010FF10000000FF140009
:1005500000FF00FF00001F10170000FC04F414143B
:100560001710171414F404F40000FF00F714141407
:1005700014141414F700F7141414171410101F1087
:100580001F141414F4141010F010F000001F101FAA
:100590000000001F14000000FC140000F010F01018
:1005A00010FF10FF141414FF141010101F0000008F
:1005B00000F010FFFFFFFFFFF0F0F0F0F0FFFFFF93
:1005C0000000000000FFFF0F0F0F0F0F38444438EA
:1005D000447C2A2A3E147E02020606027E027E0225
:1005E00063554941633844443C04407E201E200644
:1005F000027E020299A5E7A5991C2A492A1C4C7281
:1006000001724C304A4D4D303048784830BC625A07
:10061000463D3E494949007E0101017E2A2A2A2A97
:100620002A44445F444440514A444040444A514073
:100630000000FF0103E080FF000008086B6B083634
:1006400012362436060F090F0600001818000000A5
:100650001010003040FF0101001F01011E00191D94
:100660001712003C3C3C3C0000000000F0F89C8E5F
:100670008783878E9CF8F00000FEFF0303030303CB
:10068000070EFCF80000FEFF0303030303070EFC44
:10069000F80000FFFF00000000000000FFFF000066
:1006A000FEFF8383838383C7EE7C380000F8FC0E53
:1006B00007030303070EFCF800003F7FE0C08080C3
:1006C000C0E07F3FFFFF01010101010101FFFF00C9
:1006D00000FFFF0C0C0C0C1C3E77E3C100007FFFF9
:1006E000C0C0C0C0C0E0703F1F00001F3F70E0C02E
:1006F000C0C0E0703F1F00007FFFC1C1C1C1C1E3A6
:10070000773E1C00001F3F70E0C0C0C0E0703F1F7C
:10071000000000000001FFFF01000000D5F08D1473
:10072000A1C881CFD9F1AF20000808000000000067
:100730000000000101010101010101FF01010101AE
:1007400001010101010101010101FFFF00000000A1
:100750000000FFFF010101010101FFFF0000000097
:1007600000000000000000000000FF010000000089
:100770000000010100000000000000000000000077
:10078000000001FF00000000000001010000000067
:100790000000FF08087EC381898189C37E7EC389EA
:1007A000818981C37E00000000000000000000007D
:1007B0000000000000000000000000000000000039
:1007C0000000000000000000000000000000000029
:1007D0000000000000000000000000000000000019
:1007E0000000000000000000000000000000000009
:1007F00000000000000000000000000000000000F9
:1008000000000000000000000000000000000000E8
:1008100000000000000000000000000000000000D8
:1008200000000005000000000000000500000000BE
:1008300000000000000000000000000400000201B1
:100840000300000B03000000000000000001010392
:1008500000000208010109000A0101090A01030060
:100860000002010101080B0002020200000904005D
:10087000000102020000052400100105240101010D
:100880000424020605240600010705810310004028
:1008900009040100020A00000007050202400000EE
:1008A000070583024000000403090412010002EF5F
:1008B00002014041233680000101020301417264BC
:1008C00075696E6F204C4C430041726475626F799C
:1008D0000000A10D11241FBECFEFDAE0DEBFCDBFB7
:1008E00011E0A0E0B1E0ECE3FAE202C005900D9265
:1008F000A234B107D9F725E0A2E4B1E001C01D920E
:10090000A53EB207E1F714E0CAE6D4E004C021979F
:10091000FE010E941615C936D107C9F70E94BE0D07
:100920000C941C150C940000E1E9F1E0A0E0B8E0A3
:1009300000800EBC8111012C1197A0FDFDCF01920A
:10094000B9F70DB40895FC0180919001882311F14D
:100950003FB7F89482E08093E9002091F200822F63
:1009600090E01816190614F481E090E0882339F01D
:10097000289844E640938F014091F1004083222360
:1009800039F02091F200211103C02BE62093E800FA
:100990003FBF08958FEF9FEF08952FB7F89483E03E
:1009A0008093E9009091E800892F807295FF04C040
:1009B0009091F20080E4891B2FBF089580918701F8
:1009C00081110DC082E08093830184E080938401D3
:1009D000109286011092850181E08093870183E85F
:1009E00091E00895CF93DF931F92CDB7DEB769836F
:1009F000DC01ED91FC910280F381E02D41E050E0BB
:100A0000BE016F5F7F4F09950F90DF91CF910895E1
:100A100083E08093E9008091F200882319F08AE353
:100A20008093E80008950E94CD0490E00895CF934C
:100A3000DF931F92CDB7DEB7FC018485958597FDC6
:100A400008C02FEF3FEF358724870F90DF91CF91BC
:100A50000895CE0101960E94A304019719F489819B
:100A600090E0F3CF8FEF9FEFF0CF0F931F93CF93D3
:100A7000DF931F92CDB7DEB78C01FC01848595858D
:100A800097FF0BC0CE0101960E94A304019771F459
:100A9000898190E0F80195878487F80184859585A0
:100AA0000F90DF91CF911F910F9108958FEF9FEFDE
:100AB000F1CFFC018485958597FD0BC09FB7F89415
:100AC00082E08093E9008091F2009FBF90E0019660
:100AD00008959FB7F89482E08093E9008091F20036
:100AE0009FBF90E0089540917D0150917E0120913B
:100AF0007B0130917C0142175307B4F49091E800D8
:100B00009570E1F39091E80092FD19C08093F10097
:100B100080917D0190917E0101968F739927892B99
:100B200019F48EEF8093E80080917D0190917E0111
:100B3000019690937E0180937D0181E0089580E08D
:100B40000895DF92EF92FF920F931F93CF93DF935D
:100B5000D82E8A01EB017B01E40EF51ECE15DF05D0
:100B600059F0D7FE12C0FE0184910E9473052196B0
:100B70008111F4CF0FEF1FEFC801DF91CF911F91CB
:100B80000F91FF90EF90DF9008958881EECF0F9343
:100B90001F93CF93DF931F92CDB7DEB782E0898397
:100BA00042E450E065E678E080E80E94A1050E94FA
:100BB000DE04DC0112960D911C910115110589F0DE
:100BC000D801ED91FC910280F381E02DBE016F5FB1
:100BD0007F4FC801099597FD04C0F8010085118574
:100BE000ECCF89810F90DF91CF911F910F910895E4
:100BF000615030F02091F100FC0120830196F8CF84
:100C0000289884E680938F010895FC010E949C0639
:100C1000319728F068517C4F8F4F9F4FF9CFAB0130
:100C2000FC010E949C06641775078E079F07C8F396
:100C300008958F929F92AF92BF92CF92DF92EF92E0
:100C4000FF920F931F93CF93DF936C017B018A0177
:100C500080910D01882309F45AC080919001882366
:100C600009F455C08091820180FF05C08091E000A9
:100C700082608093E000E801B12C8AEFA82E93E017
:100C8000892E2AE3922E209711F4BB20C9F10E94ED
:100C9000CD04811108C0AA94AA20C9F181E090E096
:100CA0000E940506F0CF8C171D0611F00CF08C2F5A
:100CB0009FB7F8948092E9002091E80025FD02C0DA
:100CC0009FBFE1CF282F30E0C21BD30BF70181502B
:100CD00020F041914093F100FACFE20EF31EBB20C9
:100CE00021F09092E800B12CEBCF8091E80085FDD7
:100CF000E7CF9092E800BB24B394209709F3F3CF99
:100D00005D9884E680938101101611063CF081E025
:100D100090E0F6019383828310E000E0C801DF9148
:100D2000CF911F910F91FF90EF90DF90CF90BF90E8
:100D3000AF909F908F900895A7E7B1E02FB7F894F8
:100D40007D918D919C9166B52FBFA89B05C06F3F8B
:100D500018F47F5F8F4F9F4F22E0660F771F881F29
:100D6000991F2A95D1F70895AF92BF92CF92DF9243
:100D7000EF92FF920F931F93CF93DF936C017B0150
:100D80008B01040F151FEB015E01AE18BF08C017E1
:100D9000D10759F06991D601ED91FC910190F08154
:100DA000E02DC6010995892B79F7C501DF91CF9117
:100DB0001F910F91FF90EF90DF90CF90BF90AF9079
:100DC00008954F925F926F927F928F929F92AF920F
:100DD000BF92CF92DF92EF92FF920F931F93CF9328
:100DE000DF934C015901FC2DC02FD0E0CE01880DBE
:100DF000991D181619060CF06CC020E88216910493
:100E00000CF067C09B012E0D311D121613060CF05D
:100E100060C0603471050CF05CC04115510509F4E7
:100E200058C0E62FE770FE2EDB0177FD179633E002
:100E3000B595A7953A95E1F73A2F77FF04C0FF20C3
:100E400011F03FEF3A0F662777276819790997FC69
:100E500002C070E060E0803891050CF44BC090E86F
:100E60009819961BA32F032E000CBB0B1A2F10955D
:100E70003F3F0CF010E021E08E2D877009F420E058
:100E8000E694E694E694E20EAE0DB11D19971CF0BF
:100E900028E0E22EE31AE11A310F20E83203D001F4
:100EA0001124A80DB91DA60FB71F019F600D711D5C
:100EB0001124460F571F0F2D0F2C000C110BF33070
:100EC00009F41CC1C8F4F13009F4D0C0F23009F4BF
:100ED0007CC0DF91CF911F910F91FF90EF90DF9039
:100EE000CF90BF90AF909F908F907F906F905F90CA
:100EF0004F900895902FB5CFFA3FB1F1232F2E0DCB
:100F0000FB3F39F7321729F3BD016F567E4FD12CC5
:100F1000C12CC91608F0A4C0FA01EC0DFD1DE49126
:100F2000F0E04F01002E02C0880C991C0A94E2F7F1
:100F300037FD06C0FB018081E82CE0948E21808380
:100F4000FF2061F0373054F45B01F0E8AF0EB11CC4
:100F5000E92CE094F50180818E218083FFEFCF1A88
:100F6000DF0A6F5F7F4FD5CF232F2E0D321709F485
:100F7000B0CFBD016F567E4FD12CC12CC91608F0E1
:100F800069C0FA01EC0DFD1DE491F0E04F01002E67
:100F900002C0880C991C0A94E2F737FD04C0FB01DB
:100FA000808188298083FF2051F0373044F45B0131
:100FB000F0E8AF0EB11CF501808189298083FFEF35
:100FC000CF1ADF0A6F5F7F4FD9CF6FEF70E00F2C22
:100FD00002C0660F771F0A94E2F760957095772E2E
:100FE000232F2E0D321709F474CFFD01EF56FE4F5B
:100FF0006F01B12CA12CA91638F5FA01EA0DFB1DE1
:10100000E491F0E02F01002E02C0440C551C0A941C
:10101000E2F737FD05C0F6018081862384298083AD
:10102000FF2059F037304CF44601F0E88F0E911C48
:10103000F4018081872185298083FFEFAF1ABF0AE1
:101040008FEFC81AD80AD7CF3F5F4C0F5D1FA0584B
:10105000BF4FC8CF3F5F4C0F5D1FA058BF4F86CF1B
:101060003F5F4C0F5D1FA058BF4F4CCF6A0D7B1DDB
:10107000232F2E0D321709F42CCFFD01EF56FE4F12
:101080006F01B12CA12CA91688F5FB01EA0DFB1DFF
:101090008490912C002E02C0880C991C0A94E2F7CF
:1010A00080949094FA01EA0DFB1D6490712C002E3F
:1010B00002C0660C771C0A94E2F737FD05C0F60102
:1010C0008081882186298083FF2049F037303CF4D5
:1010D000F601E058FF4F8081892187298083FFEF47
:1010E000AF1ABF0A8FEFC81AD80ACDCF3F5F4C0F97
:1010F0005D1F6C0F7D1FA058BF4FBCCFC92ED12CD8
:10110000FA01E60FF71FAF56BE4F00E810E00C19CA
:101110001D09CC19DD09BE01660F771F41E050E0C3
:101120006A010F2C01C0CC0C0A94EAF7592F2E2D1E
:10113000792ECF93DF93ED01EF96EF96229685906F
:10114000A590FF2059F08C9C4001AC9C5001373099
:101150002CF4E880B094EB20E928E99233233AF0AC
:10116000EC90A094EA20E828ED920C94B80811962F
:101170005A9529F72A9551F0572D33951124E60FEA
:10118000F11DA00FB11DC00FD11DD9CFDF91CF919F
:1011900011249FCE90E00C9405068FB18095807F3E
:1011A000669B88601C9B846008956F927F928F92EB
:1011B0009F92AF92BF92CF92DF92EF92FF920F93E6
:1011C0001F93CF93DF9300D01F92CDB7DEB76D3062
:1011D00089F0A0904A01B0904B016A30F9F4109266
:1011E0004D0110924C019501285F3F4F30934B0108
:1011F00020934A0181E090E00F900F900F90DF91D3
:10120000CF911F910F91FF90EF90DF90CF90BF9003
:10121000AF909F908F907F906F90089500914C01B8
:1012200010914D0135E0639FF0011124E459FE4F08
:10123000A801712C80E1682E98E0D92EDA0C75E0B7
:1012400060E0771621F0CF0101966491FC01C501A1
:1012500040385105D0F480349105B8F4A62FA17020
:10126000CA2E9C0171E021FD74E020FD770F22FD64
:101270007295287F629ED0011124A40FAF56BE4FF5
:101280000C90072AC0FE07260C9266950196D8128C
:10129000DFCF73944F5F5F4F86E07812D0CF0A5F45
:1012A0001F4F10934D0100934C01A4CFCF93C82F33
:1012B0000E94CD08982F9C2381E09C1380E0CF9161
:1012C000089580E00C949404089590E080E00895DF
:1012D000FC0101900020E9F73197AF01481B590B41
:1012E000BC0181EE95E00C94B4068F929F92AF9270
:1012F000BF920F931F93CF93DF93CDB7DEB7A19724
:101300000FB6F894DEBF0FBECDBF19A2423008F46D
:101310004AE08E010F5D1F4F842E912CB12CA12C21
:10132000A50194010E940F13E62FB901CA01EA300A
:10133000F4F4E05DD801EE938D01232B242B252BB3
:1013400079F790E080E0109719F0CD010E946809CC
:10135000A1960FB6F894DEBF0FBECDBFDF91CF913F
:101360001F910F91BF90AF909F908F900895E95C6F
:10137000E1CF4F925F926F927F928F929F92AF9246
:10138000BF92CF92DF92EF92FF926B017C01AC0192
:101390009B010E94FD148823C1F083E391E00E9429
:1013A00068097C018FE391E00E9468098E0D9F1D02
:1013B000FF90EF90DF90CF90BF90AF909F908F9075
:1013C0007F906F905F904F90089546015701E89489
:1013D000B7F82FEF3FEF4FE75FE7C501B4010E9479
:1013E000FD1481110DC02FEF3FEF4FE75FE7C501FF
:1013F000B4010E949E1318161CF487E391E0CFCF2E
:101400002FEF3FEF4FE75FE4C701B6010E948B1457
:1014100018161CF48BE391E0C2CF2FEF3FEF4FE79C
:101420005FECC701B6010E949E1387FDF3CF20E059
:1014300030E0A901C701B6010E949E13B12CA12C76
:1014400087FF0AC06DE281EE95E00E94D5085C013D
:10145000F7FAF094F7F8F0942AE037ED43EA5BE30B
:10146000C701B6010E9432132B013C010E94AA134E
:101470006B017C010E94D9139B01AC01C301B20135
:101480000E9431132B013C014AE0C701B6010E94C2
:1014900075097C01EA0CFB1C6EE281EE95E00E946E
:1014A000D508E80EF91E20E030E040E251E4C30127
:1014B000B2010E9490142B013C010E94AA134B011F
:1014C000B12CA12C4AE0C501B4010E947509E80EB7
:1014D000F91EC501B4010E94D9139B01AC01C301DF
:1014E000B2010E94311320E030E040E251E40E945A
:1014F00090140E94AA1390E080E04AE00E947509CF
:10150000E80EF91E4FCF1F920F920FB60F921124C3
:101510008F939F938091E1009091E100937F90934E
:10152000E10083FF0FC01092E90091E09093EB007F
:101530001092EC0092E39093ED001092900198E0ED
:101540009093F00082FF22C093E09093E900909185
:10155000F200992319F09AE39093E80090918101A9
:10156000992341F0909181019150909381019111C3
:1015700001C05D9A90918F01992341F090918F0164
:10158000915090938F01911101C0289A84FF18C047
:101590008091E2008E7E81608093E2008091E10084
:1015A0008F7E8093E100809182018E7E80618093A6
:1015B00082019F918F910F900FBE0F901F901895F1
:1015C00080FFF7CF8091E2008E7E80618093E20001
:1015D0008091E1008E7E8093E100809182018E7E79
:1015E0008160E5CF1F920F920FB60F921124CF9218
:1015F000DF92EF92FF920F931F932F933F934F939E
:101600005F936F937F938F939F93AF93BF93EF936A
:10161000FF93CF93DF93CDB7DEB76C97DEBFCDBF1F
:101620001092E9008091E80083FF25C068E0CE01B8
:1016300045960E94F80582EF8093E8008D8987FF28
:1016400039C09091E80090FFFCCF982F907609F078
:1016500034C19E894F89588D2F89F88C911131C0E2
:10166000803861F5809180018093F1001092F10043
:101670008EEF8093E8006C960FB6F894DEBF0FBE35
:10168000CDBFDF91CF91FF91EF91BF91AF919F912E
:101690008F917F916F915F914F913F912F911F910A
:1016A0000F91FF90EF90DF90CF900F900FBE0F90B3
:1016B0001F9018959EEF9093E800C7CF1092F1000D
:1016C000D5CF913059F48111D3CF4130510581F6F6
:1016D000809180018D7F80938001CACF933049F43F
:1016E0008111C6CF4130510519F680918001826089
:1016F000F2CF953041F48091E80080FFFCCF206864
:101700002093E300B5CF963009F0A9C00B8D1C8D56
:1017100022E01092E90010927E0110927D01F212F7
:101720002EC010927C0110927B010E94C7051F827F
:1017300099E09983FA8291E09E8390EA98879AEFE4
:10174000998720917D0130917E01275F3F4F3C8337
:101750002B838D831092E90010927E0110927D01FF
:1017600010937C0100937B0149E050E0BE016F5F64
:101770007F4F80E00E94A1050E94C70579CF10939A
:101780007C0100937B010E94DE04DC0112960D9126
:101790001C910115110509F451C1D801ED91FC917D
:1017A0000480F581E02DBE016B5E7F4FC801099575
:1017B000009709F03EC1F80100851185EACFF3E0FA
:1017C000FF120EC08F89882309F440C0823061F473
:1017D00040E867E089EC98E00E946E0D811148CFE7
:1017E00081E28093EB0047CF813029F440E86BE041
:1017F0008DEB98E0F1CF833099F70E94DE04DC0195
:101800001296ED90FC908E010F5F1F4F6801E1145E
:10181000F10479F0D701ED91FC910680F781E02D7C
:10182000B801C7010995080F111DF701E084F18483
:10183000EECFD8011C92F60101900020E9F7319714
:10184000BF016C197D0940E0C601C6CF67EA78E0A8
:10185000FB01449150E080E80E94A10509CF973038
:1018600009F4BECF983021F481E08093F10000CFDD
:10187000993009F0FDCE837009F0B2CFEFE0F1E0CE
:1018800081E031E096E32191222371F08093E90019
:101890003093EB00DF0111972C912093EC00909393
:1018A000ED008F5F873079F78EE78093EA00109222
:1018B000EA008F8980939001DBCE8B8D9C8D1092F6
:1018C000E90010927E0110927D0190937C0180933B
:1018D0007B01898D811192C08E899D89913A49F44D
:1018E000813209F07DCF47E050E066E071E080E0B2
:1018F000B3CF913209F074CF833269F48F89988D18
:10190000B0E0A0E08093020190930301A093040152
:10191000B0930501ADCE803269F48091E80082FF7A
:10192000FCCF67E086E091E00E94F8058BEF8093A2
:10193000E8009ECE823209F09BCE8F8980930D0104
:10194000EEEFFFE7859194918B3F9C4D51F1E0E0E4
:10195000F8E08091060190910701A0910801B091F3
:101960000901803B9440A105B105F1F480910D017E
:1019700080FD1AC0EE3F8AE0F80789F587E797E710
:10198000918380838091600080937F0188E19BE058
:101990000FB6F894A895809360000FBE90936000F6
:1019A00067CEEEEFFAE0D5CF8081918187379747F8
:1019B00009F05ECEA89580916000886180936000F8
:1019C00080917F0180936000EE3F2AE0F20789F06A
:1019D0008091FE0A9091FF0A9183808349CE808195
:1019E00091818737980751F29093FF0A8093FE0AFE
:1019F000C5CF1092FF0A1092FE0A3ACE0E94DE0472
:101A0000DC0112960D911C910115110509F4E8CE27
:101A1000D801ED91FC910190F081E02DBE016B5E4B
:101A20007F4FC8010995811123CEF80100851185EA
:101A3000EBCF181619060CF41BCED2CEF1E0FF1234
:101A4000BECE6BEA78E004CF0F920FB68F939F93D0
:101A5000EF93FF93809172018D5F8D3708F08D5762
:101A600080937201E3E7F1E080818E4F8083918162
:101A70009F4F918382818F4F828383818F4F838396
:101A8000E7E7F1E080818F5F808381818F4F8183E1
:101A900082818F4F828383818F4F83838FB18F6049
:101AA00066991C9B88278F3681F480917101981B61
:101AB000963068F0E0E0F8E087E78083818388E192
:101AC00080936000F0936000FFCF90937101FF91CD
:101AD000EF919F918F910FBE0F901895EF92FF920B
:101AE0000F931F93CF93DF93F82E192FE62E042F19
:101AF00081E0860F880F0E94730583E00E947305C2
:101B0000CF2DD12FEC0EFD2EF11CCE15DF05B9F037
:101B100007FF13C0FE0184910E947305182F80E017
:101B20000E947305812321968111EFCFDF91CF9120
:101B30001F910F91FF90EF9008958881EDCF81E084
:101B4000F5CFE1E9F5E01382128288EE93E0A0E0A0
:101B5000B0E084839583A683B78389E191E0918384
:101B600080838FEF9FEF95878487E1EEF5E0138206
:101B700012828BE291E0918380830895789483E0D0
:101B800084BD83E085BD81E080936E00E1E8F0E0F4
:101B900083E08083E0E881E08083E1E983E0808383
:101BA000E0E981E08083E1EC87E08083E3EC81E0A1
:101BB0008083E0EC82E08083E2EC81E08083EAE7EE
:101BC00087E080838068808310929001109280016A
:101BD000109282018091D70081608093D70080EAC3
:101BE0008093D80089B5806189BD89B5826089BD3F
:101BF00009B400FEFDCF81E090E00E9405068091CF
:101C0000D8008F7C80618093D8008091E000807F35
:101C10008093E0008091E1008E7E8093E1008DE072
:101C20008093E200559A209A81EC80937C0081EFAA
:101C300085B987EE84B982E38BB982EF8AB9769A47
:101C40006E9880EF81BB10BA80E58CBD81E08DBDC0
:101C500085E00E94CA085F9A85E00E94CA085C98E5
:101C6000ECE1F7E085918EBD00000DB407FEFDCFDD
:101C7000E932C1F75C9A81E88093640081E0809347
:101C800065000E94610980E80E9456098823A9F036
:101C90005C9885EA8EBD00000DB407FEFDCF5C9A0E
:101CA0002E982F982D988091640080628093640014
:101CB00081E083BF889513BEFCCF84E00E94560963
:101CC0008823B9F12D9884E80E9456098823A1F051
:101CD0002D9A88EC0E94CA082F986FEF82E090E05E
:101CE0000E94FD1284EF91E00E9405062F9A84E87D
:101CF0000E9456098111FBCF84E10E945609882376
:101D0000A1F02D9A88EC0E94CA082E9860E082E02B
:101D100090E00E94FD1284EF91E00E9405062E9A49
:101D200084E10E9456098111FBCF88EC0E94CA0809
:101D3000C4CF2D9A82E090E00E94F512882351F1E1
:101D40003E9A3F9A81E090E00E94F512182F14709D
:101D500081FF0BC011112E98C1EFDFEF80E40E94CC
:101D600056098823D1F02E9A2F9A82E30E94CA083E
:101D70000E94CD088111F9CFC0916F01CC2309F4E5
:101D8000A5C010926F0180E090E0892BA9F30E941A
:101D90000000F2CF3E983F98D5CF112329F0C430F0
:101DA000D10511F42E9A2F9881E00E9494040C2FF3
:101DB0000770A02EAE0183E0559547958A95E1F70F
:101DC0009A013695322F2227379527952F563E4F69
:101DD00070E060E04E3F8FEF580761F190E080E0E7
:101DE000DB01A459B94F7901E0E8EE0EF11CFD01C9
:101DF000E80FF91FE491F0E04F010A2C02C0880CB3
:101E0000991C0A94E2F74F3F540739F06901C80E54
:101E1000D91EF601B488B828B48AAA2039F067011F
:101E2000C80ED91EF60104890929048B019688354C
:101E30009105E9F64F5F5F4F20583F4F685A7F4F3B
:101E4000603B710539F60E9461098FE00E94CA0863
:101E50002196C931D10509F081CF112311F02F9AB4
:101E60002D9880E991E00E9405062D9A81E090E08E
:101E70000E94F51280FF79CF8AE090E00E94F5126F
:101E80009FEF980F9E3F08F070CF22E330E0309331
:101E90004D0120934C0128E330E030934B01209317
:101EA0004A01CBE0D0E0682F81EE95E00E94D50892
:101EB000CE010E94F5122196C131D105A1F70E94F1
:101EC000610988EE93E00E9405064FCF809173016F
:101ED00090917001F82FF91BF03140F4FF3009F4B4
:101EE00052CF81E083BF889513BE4DCFD1E0D09310
:101EF0006F0180937001EDE6F1E0808191810196A0
:101F00008083918310916A0110936B010E94CD0828
:101F1000282F80936A01E1E9F1E0C111CFEF8FEF43
:101F2000C193C193C193C1938150D0F710924B01DB
:101F300010924A0110924D0110924C0180916C0157
:101F4000882329F0813051F00E9461091CCF13FDD4
:101F5000FBCF23FFF9CFD0936C01F6CFB12CA12C8E
:101F6000B5010B2C000C880B990B0E94DB13209100
:101F700052013091530140915401509155010E94FA
:101F800031130E94A3132B01685F7F4F69347105E1
:101F900008F062C03501660C771C6A0C7B1CD0E02F
:101FA000C0E0912C812CBE010D2E000C880B990BEA
:101FB0000E94DB1320914E0130914F01409150015E
:101FC000509151010E9431130E94A313CB019B0138
:101FD000285F3F4F2938310508F035C0E0910001F6
:101FE000F09101019301280D391DE20FF31F649157
:101FF000E9E2F7E00491EAE2F7E0E4904BE257E02F
:102000006623D1F021E030E04E2D477011F430E02E
:1020100020E04E2D469546954695420F532F511D73
:10202000049F9001059F300D1124629FA001639FC2
:10203000500D1124455D584F1AEFC12E30E020E0BD
:10204000B2010E94E106FFEF8F1A9F0A289608E16D
:102050008016910409F0A7CF28E0A20EB11C80E4FD
:10206000A816B10409F07CCF80E40E9456098823A9
:10207000C1F028EB3EE145E05EE3609162017091C2
:10208000630180916401909165010E943213609315
:1020900062017093630180936401909365011092D3
:1020A000580180E20E9456098823C9F028EB3EE1DE
:1020B00045E05EE36091620170916301809164018B
:1020C000909165010E9431136093620170936301E6
:1020D000809364019093650181E08093580180E8CA
:1020E0000E945609882381F080915901882361F06C
:1020F0008AE999E9A9E9BFEB8093660190936701AA
:10210000A0936801B093690160915A0170915B01DD
:1021100080915C0190915D010E94B90960915E011E
:1021200070915F0180916001909161010E94B909F5
:1021300060916201709163018091640190916501E9
:102140000E94B909609166017091670180916801F0
:10215000909169010E94B9092FE832EC45EF5CE3E8
:1021600060916601709167018091680190916901A9
:102170000E9432134B015C018092660190926701CC
:10218000A0926801B09269012FE135E84BE65FE368
:102190006091620170916301809164019091650189
:1021A0000E949014609362017093630180936401B4
:1021B0009093650120915A0130915B0140915C013F
:1021C00050915D010E9432136B017C0120915E01F0
:1021D00030915F014091600150916101C501B401EE
:1021E0000E9432134B015C0120E030E040E850E4F3
:1021F000C701B6010E94321320E030E040E05EE308
:102200000E9490140E94A3132B0120E030E040E0D4
:1022100051E4C701B6010E9432130E94A3138B013F
:1022200077FF02C0095F1F4FC3E015950795CA9558
:10223000E1F7209000013090010120E030E040E81B
:1022400050E4C501B4010E94321320E030E040E0C8
:102250005EE30E9490140E94A31328E1269FE001F0
:10226000279FD00D1124C20DD31DFE01E00FF11FD9
:10227000E491EE23C1F0B80161507109B3E0660F3B
:10228000771FBA95E1F7072E000C880B990B0E9477
:10229000DB136B017C0110926201109263011092BA
:1022A000640110926501C701B6010E94A3139B014E
:1022B00077FF02C0295F3F4FB901A3E0759567958D
:1022C000AA95E1F7FE01E60FF71FE491EE23B9F0BE
:1022D0006F5F7F4FF3E0660F771FFA95E1F7072EE8
:1022E000000C880B990B0E94DB136B017C01109290
:1022F000620110926301109264011092650120E066
:1023000030E040E051E4C501B4010E9432130E9464
:10231000A3139B0177FF02C0295F3F4FB901E3E0A0
:1023200075956795EA95E1F788E1869FF001879FAB
:10233000F00D1124E40DF51DE20DF31D2490222073
:1023400009F42FC16150710953E0660F771F5A9548
:10235000E1F7072E000C880B990B0E94DB134B0151
:102360005C01109266011092670110926801109250
:10237000690181E080935901622D70E090E080E076
:102380004AE00E9475098FE391E00E94680920E00D
:1023900030E040E85FE3C501B4010E9431130E94C0
:1023A000A3139B0177FF02C0295F3F4FB90143E0B0
:1023B000759567954A95E1F788E1869FF001879FBB
:1023C000F00D1124E40DF51D8091000190910101A3
:1023D000E80FF91FE491EE23B9F06F5F7F4F33E010
:1023E000660F771F3A95E1F7072E000C880B990BC3
:1023F0000E94DB134B015C01109266011092670191
:10240000109268011092690120E030E0A901C70133
:10241000B6010E948B1418161CF0C12CD12C760129
:10242000C0925A01D0925B01E0925C01F0925D0192
:1024300020E030E0A901C501B4010E948B141816F8
:102440001CF0812C912C540180925E0190925F01CE
:10245000A0926001B092610140904E0150904F01F6
:10246000609050017090510120E030E0A901C3015B
:10247000B2010E949E1318160CF4A1C081E0809353
:10248000560120E030E040E852E4C301B2010E946E
:102490008B1487FF9EC020E030E048E652E4C7017D
:1024A000B6010E948B1487FF9DC08091570188233D
:1024B00061F020E030E040E053E4C701B6010E9443
:1024C0009E13181614F01092570180915601811135
:1024D00014C080915701811110C020E030E040E825
:1024E00052E4C701B6010E94311360934E0170930C
:1024F0004F018093500190935101209152013091EE
:1025000053014091540150915501C501B4010E94FD
:1025100031130E94A3134B0120914E0130914F01C2
:102520004091500150915101C701B6010E943113F1
:102530000E94A313CB01E3E9F7E00491E4E9F7E09B
:10254000E4902091580145E957E02223A1F021E0D1
:1025500030E04E2D477011F430E020E04E2D4695CE
:1025600046954695240F311D029FA001039F500DF3
:1025700011244B56584F22E0C22E30E020E0B40127
:102580000E94E10680916B0183FDDECC80916A019F
:1025900083FFDACC85EA97E09093010180930001F4
:1025A000D3CC80916D0190916E016AE070E00E9441
:1025B0000215892B09F0E0CE10925901DDCE20E002
:1025C00030E040E852E4C301B2010E948B1487FD61
:1025D00003C081E08093570180915601882309F45C
:1025E00064CF59CF1092560160CFF999FECF92BDBA
:1025F00081BDF89A992780B50895262FF999FECFC5
:1026000092BD81BDF89A019700B4021639F01FBA45
:1026100020BD0FB6F894FA9AF99A0FBE0895A1E278
:102620001A2EAA1BBB1BFD010DC0AA1FBB1FEE1F4C
:10263000FF1FA217B307E407F50720F0A21BB30B97
:10264000E40BF50B661F771F881F991F1A9469F713
:1026500060957095809590959B01AC01BD01CF016F
:1026600008955058BB27AA270E9449130C9451146F
:102670000E94431438F00E944A1420F039F49F3F1E
:1026800019F426F40C9440140EF4E095E7FB0C9436
:102690003A14E92F0E94621458F3BA1762077307BD
:1026A0008407950720F079F4A6F50C9484140EF4B1
:1026B000E0950B2EBA2FA02D0B01B90190010C0152
:1026C000CA01A0011124FF27591B99F0593F50F46A
:1026D000503E68F11A16F040A22F232F342F4427C2
:1026E000585FF3CF469537952795A795F0405395BA
:1026F000C9F77EF41F16BA0B620B730B840BBAF08A
:102700009150A1F0FF0FBB1F661F771F881FC2F7F4
:102710000EC0BA0F621F731F841F48F48795779508
:102720006795B795F7959E3F08F0B0CF9395880FC2
:1027300008F09927EE0F9795879508950E94161433
:1027400008F481E008950E94AA136894B1110C94D2
:10275000851408950E946A1488F09F5798F0B92F45
:102760009927B751B0F0E1F0660F771F881F991FC6
:102770001AF0BA95C9F714C0B13091F00E948414D0
:10278000B1E008950C948414672F782F8827B85FE0
:1027900039F0B93FCCF3869577956795B395D9F71E
:1027A0003EF490958095709561957F4F8F4F9F4F28
:1027B0000895E89409C097FB3EF490958095709534
:1027C00061957F4F8F4F9F4F9923A9F0F92F96E97D
:1027D000BB279395F695879577956795B795F111F2
:1027E000F8CFFAF4BB0F11F460FF1BC06F5F7F4F8F
:1027F0008F4F9F4F16C0882311F096E911C07723A1
:1028000021F09EE8872F762F05C0662371F096E8A9
:10281000862F70E060E02AF09A95660F771F881F78
:10282000DAF7880F9695879597F90895990F00081C
:10283000550FAA0BE0E8FEEF16161706E807F90792
:10284000C0F012161306E407F50798F0621B730B2D
:10285000840B950B39F40A2661F0232B242B252BAE
:1028600021F408950A2609F4A140A6958FEF811D51
:10287000811D089597F99F6780E870E060E00895F2
:102880009FEF80EC089500240A9416161706180688
:102890000906089500240A94121613061406050664
:1028A0000895092E0394000C11F4882352F0BB0FF5
:1028B00040F4BF2B11F460FF04C06F5F7F4F8F4F58
:1028C0009F4F089557FD9058440F551F59F05F3F93
:1028D00071F04795880F97FB991F61F09F3F79F042
:1028E00087950895121613061406551FF2CF4695C4
:1028F000F1DF08C0161617061806991FF1CF869546
:102900007105610508940895E894BB276627772729
:10291000CB0197F908950E94161408F48FEF0895DB
:102920000E94A3140C9451140E94431438F00E9486
:102930004A1420F0952311F00C943A140C9440148E
:1029400011240C9485140E94621470F3959FC1F3B6
:10295000950F50E0551F629FF001729FBB27F00D4D
:10296000B11D639FAA27F00DB11DAA1F649F6627A2
:10297000B00DA11D661F829F2227B00DA11D621FF1
:10298000739FB00DA11D621F839FA00D611D221FAB
:10299000749F3327A00D611D231F849F600D211D8F
:1029A000822F762F6A2F11249F5750409AF0F1F012
:1029B00088234AF0EE0FFF1FBB1F661F771F881F7B
:1029C00091505040A9F79E3F510580F00C943A1465
:1029D0000C9485145F3FE4F3983ED4F38695779585
:1029E0006795B795F795E7959F5FC1F7FE2B880F21
:1029F000911D9695879597F908950E941614880B56
:102A0000990B0895AA1BBB1B51E107C0AA1FBB1F4E
:102A1000A617B70710F0A61BB70B881F991F5A956A
:102A2000A9F780959095BC01CD010895EE0FFF1F89
:102A30000590F491E02D0994F894FFCFAC00FFFFCE
:102A4000FFFF00E100000000000000C180810000E5
:102A50000000000000F204190613050805590517C7
:102A600005350500000000D508B406650964096E47
:0E2A7000616E00696E66006F7666000D0A00EA
:1074000080E189BD82E189BD09B400FEFDCF089508
:10741000CAD569F08091E9008F931092E9009FD45A
:1074200083FF01C01ED58F9187708093E900089576
:107430008EEF0090E10008220092E1000895F20131
:10744000F999FECFF2BDE1BD0895F9DFF89A80B554
:1074500008C0F5DF1FBA80BD0FB6F894FA9AF99A02
:107460000FBE31962F010895E0E0F0E085919491F0
:107470000196089580EE8BB98BEA34D01092890082
:107480008AEF8093880082E080936F0083E080938E
:107490008100E7E5F7E785913AD0E336E1F781E04F
:1074A0008093D7008AE482BF1092D8001092E20045
:1074B0001092DA001092E10080E808D019BC1EBAE0
:1074C0001092E00062D489E053D481E98093D8001F
:1074D0000895A3E6B1E090E81AD08D939A95E1F76C
:1074E000089586E008D010C083E005D08F2F0FD01C
:1074F0008E2F0DD080E05E9A599809C005D085E0A6
:10750000FADF05D080FDFDCF599A5E9808958EBDB3
:107510008DB587FFFDCF8EB508958FE08221E9F705
:10752000F3DFE3E6F6E090EB5C98892FF0DF80E193
:10753000EEDF5C9A8191EBDF83E68E278F77D1F7C0
:107540009395983B89F70895E3E6F1E097FC36C000
:1075500094FC4DC092FE089596849920D1F3F8943E
:10756000C089D78520E030E080E090E4AFEFBFEF46
:10757000119689199040E0F72D01BD4F8D0127FD2F
:1075800013C0E0E0F8E011928EE7819392E4E117F6
:1075900091939AE508F092E4E334C9F7819310825D
:1075A000BFDFFE012196A0DF94DFF901FFD4205850
:1075B0003F4F040D151D9A9411F712C28301282D17
:1075C00060906C0170906B0143D019F48823C1F76F
:1075D0000895380188243CD0C9F580916A0182174A
:1075E00009F4830160906E0170906D01F4CF80E129
:1075F000982E60906E0170906D012AD059F4882306
:10760000B1F708959FEF95FC03C096FE089591E0B1
:1076100097FB890E662477248301222719D0B1F4C1
:107620008823A1F380916A0136F0881650F48217FE
:1076300030F0213003C0881520F4281710F483019E
:10764000282F60906E0170906D01E8CF3801822E76
:10765000F3014ADF3EDFC3E6D1E0E0E5F7E709905A
:107660008591081621F4E735D1F7088080104CCFBA
:10767000C9E031DFCA95E9F7D0E197FC55C094FC29
:1076800037C096FE1AC0C3E6D2E0E3E6F6E098E023
:1076900088E78E0F00840192E817E1F7884F099080
:1076A0000192E817E1F7C858DF4F9A9589F735DF5F
:1076B000C85FD340C33E49F749C0C3E6D6E0EBE517
:1076C000FAE098E08E2F885702900086E817E1F7DD
:1076D00038960A900292E817E1F73897C857D040D9
:1076E0009A9581F71ADFC850DC4FC33E41F72EC090
:1076F000A3EEB6E0E3E6F6E09AE0C6E00D90808106
:107700008025807F802582958193A336B90709F46F
:10771000B2E0E336F90709F4F2E0E336FC0771F76B
:10772000FCDEDA9529F712C0A3EEB9E0E3E6FAE051
:1077300092E00E90829180258F70802582958083C3
:10774000E336F907B1F7E9DEDA9571F7882708958E
:1077500041524455424F59D5F08D14A1C881CFD91B
:10776000F1AF000000FFFFCFCFFFFFFFFFCFCFFF44
:10777000FF0000FE067E7E06FE46565616FE0656A4
:10778000461EFE3F61E9E3FFE3EBE3FFE3EBE3FFCC
:10779000E16B3F0012011001020000084123360096
:1077A00001000000000109023E00020100803209D0
:1077B000040000010202010005240010010424025B
:1077C000040524060001070582030800FF090401DF
:1077D00000020A00000007050402100001070583EB
:0477E0000210000192
:1078000011241FBE04B714BE88E18093600010925B
:1078100060008EEF9AE09EBF8DBF222433242101A9
:107820003101410180E88AC00F928F939F931F928C
:107830000FB60F9211244F936F938091DA0080FF5F
:1078400037C023C00F920FB68F939F93EF93FF9390
:1078500088278093850080938400E0E5F1E09281A1
:10786000907261F490818917980B908309F45D9A66
:1078700091818917980B918309F4289A239411F424
:107880008315381EFF91EF9154C08091D80080FF7E
:107890000FC08091DA008E7F8093DA008091D9004A
:1078A00080FF04C0ADDD81E08EBB02C019BC1EBAF2
:1078B0008091E10080FF0BC055D280FF08C055D2F7
:1078C0008091D800806202DE19BC85E08EBB809179
:1078D000E10084FF1AC046D284FF17C091DD809179
:1078E000D8008F7DF3DD8FEEA4DD3CD28F7E8160EA
:1078F0003FD280915301882331F48091E30087FDCA
:1079000002C081E001C084E08EBB8091E10083FF72
:107910000CC028D283FF09C087EF8BDD82E08EBBCD
:107920001092530185DD21D230D26F914F910F908B
:107930001F909F918F910FBE0F90189580936100BB
:1079400010926100B1E0B5BF82E085BF81EF85B9DB
:1079500087EE84B91DB8769A10BA83EF81BB82E6B0
:107960008BB982EF8AB980E58CBDBDBDA0E0E4E9AA
:10797000F7E705900D92A035E1F71D92BB30E9F7CE
:1079800001FD06C0000004C07C9B02C06DDD41F516
:1079900071DD78945DDE71F0ABE9B7E0E3E6F7E71F
:1079A00090E105900D929A95E1F7A059BF4FE33908
:1079B000B9F7B7DD52D02CDD80915201807861F4A7
:1079C0008FB18095807F66991C9B8460982E1ADE0B
:1079D0008110BADD92FC02C0332062F745DD51F31D
:1079E000F89489EB7FDD81E08093E00010926F00D6
:1079F00010928100109285001092840081E085BF72
:107A000015BE2E9A2F9A2D9A5D9A289A0C940000F2
:107A1000A4D107C057D102C0C6D239F0A0D182FF8D
:107A2000FBCF85FFF7CF8091F1000895082E83E00A
:107A300095D185FD07C08AD102C0B5D269F08FD13A
:107A400080FFFBCF0092F10080915201807221F4FF
:107A50005D9884E68093500108957FD182FF34C100
:107A600080915201807221F4289884E6809351011C
:107A7000CFDF182F853431F422248EE7382EDFDC57
:107A80008DE00BC1843511F4C3DFFACF8C34C1F320
:107A90008035B1F3843721F484E4C8DF80E0FDC091
:107AA000813611F489E5F9C0813429F4B1DF582E0B
:107AB000AFDF482EE5CF803711F483E5EEC0833584
:107AC00039F4E0E5F7E78591B1DFE735E1F7E6C0A6
:107AD000863521F481E3AADF89E3DFC0863761F4CC
:107AE00081E3669B8E5F1C9B8F5FA0DF8FB18095CB
:107AF00082958F708F5BD1C08837A9F489DF80931E
:107B00005201289A84FD28985D9A83FD5D982E9AEB
:107B100081FD2E982F9A82FD2F982D9A80FD2D9809
:107B200087FD8824ADCF8A3649F48FE9E4DCC3E0D1
:107B3000EEDC7CDFCA95E1F7E7DCB0C0833731F4D7
:107B400087E874DF85E972DF8EE1A7C0853639F4F6
:107B5000E0E8F3E73ED2E058F040E0F791CF82361C
:107B600031F489E563DF80E061DF80E896C082342C
:107B700019F0873609F07DC033244ADFD82F48DF5B
:107B8000C82F46DF082F8354843008F085C00634A0
:107B900011F4440C551CF20110926F001736B9F421
:107BA000033489F483E0A1DCB2DC8EB51EBC3EDF79
:107BB0000DB42197D1F7A8DC08C0063411F48591E3
:107BC00001C043DC33DF2197C2F72F014AC00334E1
:107BD000A9F4E11104C085DC88ED87DC8FDC81DC51
:107BE00082E083DC15DF0DB48EBDCA95D9F73196DE
:107BF0008FDC84DCDA9569F72F0131C00634F1F4AB
:107C00009F01F437D8F4E5D119C002DF063461F4DE
:107C1000C0FB46F0F43728F4182E81E087BFE895C2
:107C200011243296082E0AC0043439F4DF01B370EF
:107C3000AD59B94F8D93319601C00BDC21972AF7CE
:107C4000043431F42F01F370FE2B49F46ADC07C0D1
:107C5000063429F42F01F901F43708F4B8D18DE086
:107C6000E5DE063411F45694479482E080936F0069
:107C700015C08237E1E049F08634E0E031F08E341F
:107C8000E3E019F0813531F4E2E0F0E089E087BF0C
:107C9000849103C08B3111F08FE3C8DE83E0C5DB34
:107CA00055D095FF03C009C07ED171F058D080FF38
:107CB000FBCF4CD002C077D139F051D080FFFBCF41
:107CC00084E0B3DB8BE743C00895E4E5F1E067E0CF
:107CD00090915B0180915C01913231F0913AE1F534
:107CE0008132D1F55ED181C0823271F48191805BA5
:107CF0008191844089F580915D0180FD2DC0F894CB
:107D000081E08093E0007CCD803231F54AD14BD1C7
:107D1000E9F08530D9F023D083FD18C082FFF7CF7A
:107D200004C081DE8193615031F09091F300809125
:107D3000F200892BB1F7C6DF611549F704C033D1D2
:107D400029F0853019F00BD080FFF9CF8EE79091A4
:107D5000E80089238093E800089584E066DB809141
:107D6000E80008958091E2000895FCDF8E7F806135
:107D70008093E200089582E061EC09D083E061E83D
:107D800002D084E060E842E103C080E060E042E0CD
:107D90004CDB81E007D01092ED006093EC00409343
:107DA000ED0008959091EB00892B8093EB000895EE
:107DB00060E0923029F0913029F4E0E062E102C005
:107DC000E2E16EE3F1E0089580915B0188234CF4D9
:107DD00002C0E9D0C1F3C3DF82FFFBCF73CFE3D092
:107DE00091F3BDDF80FFFBCFB1CF40916101509196
:107DF00062014617510520F0462F611509F4A6DFF0
:107E000050E022C0D0D061F1853051F1A8DF83FD70
:107E100059CFA5DF82FD21C080FF16C03091F3004D
:107E20002091F20006C081918093F10041502F5FB4
:107E30003F4F411519F028303105A8F350E02830A4
:107E4000310509F451E082DF4115E1F65523D1F601
:107E500004C0A9D029F0853019F081DF82FFF9CF65
:107E600031CFEBE5F1E0DFDD8193E336E1F72DDFA4
:107E700076DF83FF91C080915B0190915C0191302E
:107E800009F170F09330F1F0953009F444C0963068
:107E900009F456C0983009F460C0993059F767C0AA
:107EA000823841F780915F01BFDA2091EB00109298
:107EB000E90077D02295269521702093F100109249
:107EC000F10052C0882311F08230A1F68F71823008
:107ED00089F680915D018823D1F420915F0127709C
:107EE00049F22093E9008091EB0080FF10C09330AD
:107EF00011F480E20BC080E155DF81E0880F2A9504
:107F0000E9F78093EA001092EA0088E04BDF1092D4
:107F1000E90047D02AC0882391F410915D011068D0
:107F20000FB7F8943ED050DF1ADF80FFFDCF1093DB
:107F3000E300103883E009F482E08EBB0FBF2CC051
:107F40008058823048F580915D0190915E0130DF6C
:107F5000603011F126D049DF1FC08038E9F421D00C
:107F6000809153018093F100F1DE2EDF15C088234C
:107F700099F490915D01923078F49093530111D06F
:107F800023DF80915301882321F48091E30091E065
:107F900087FD94E09EBBEFDEE2DE83FF089580E282
:107FA00001DF87EFD4CE8EB388230895A3E6B1E036
:107FB000F437B8F40ED090E40D901D9081E087BFA7
:107FC000E89532969A95C1F71124E058F04085E083
:107FD00001C083E001D081E187BFE89507B600FCCE
:047FE000FDCF089534
:067FFA003139D9CFFBDC98
:00000001FF
