:020000040000FA
:100000000C940A040C9432040C9432040C943204C0
:100010000C9432040C9432040C9432040C94320488
:100020000C9432040C9432040C943D0A0C94AC0AE7
:100030000C9432040C9432040C9432040C94320468
:100040000C9432040C9432040C9432040C94320458
:100050000C9432040C9432040C9432040C94DE0C94
:100060000C9432040C9432040C9432040C94320438
:100070000C9432040C9432040C9432040C94320428
:100080000C9432040C9432040C9432040C94320418
:100090000C9432040C9432040C9432040C94320408
:1000A0000C9432040C9432040C94320400000000CE
:1000B000003E5B4F5B3E3E6B4F6B3E1C3E7C3E1CEE
:1000C000183C7E3C181C577D571C1C5E7F5E1C0034
:1000D000183C1800FFE7C3E7FF0018241800FFE7EB
:1000E000DBE7FF30483A060E2629792926407F05AE
:1000F0000507407F05253F5A3CE73C5A7F3E1C1CC4
:1001000008081C1C3E7F14227F22145F5F005F5F83
:1001100006097F017F006689956A6060606060946F
:10012000A2FFA29408047E040810207E2010080874
:100130002A1C08081C2A08081E101010100C1E0C7F
:100140001E0C30383E3830060E3E0E060000000011
:100150000000005F00000007000700147F147F14F8
:10016000242A7F2A1223130864623649562050003D
:1001700008070300001C2241000041221C002A1C29
:100180007F1C2A08083E0808008070300008080814
:100190000808000060600020100804023E51494534
:1001A0003E00427F400072494949462141494D3352
:1001B0001814127F1027454545393C4A49493141B9
:1001C000211109073649494936464949291E000087
:1001D00014000000403400000008142241141414DC
:1001E0001414004122140802015909063E415D59C8
:1001F0004E7C1211127C7F494949363E41414122D1
:100200007F4141413E7F494949417F090909013EFA
:10021000414151737F0808087F00417F4100204021
:10022000413F017F081422417F404040407F021C33
:10023000027F7F0408107F3E4141413E7F0909094A
:10024000063E4151215E7F09192946264949493216
:1002500003017F01033F4040403F1F2040201F3FDC
:100260004038403F63140814630304780403615961
:10027000494D43007F4141410204081020004141A3
:10028000417F04020102044040404040000307084F
:100290000020545478407F2844443838444444284B
:1002A000384444287F385454541800087E090218F2
:1002B000A4A49C787F0804047800447D400020407A
:1002C000403D007F1028440000417F40007C0478BE
:1002D00004787C080404783844444438FC18242406
:1002E0001818242418FC7C08040408485454542486
:1002F00004043F44243C4040207C1C2040201C3C03
:100300004030403C44281028444C9090907C4464F9
:10031000544C44000836410000007700000041368C
:10032000080002010204023C2623263C1EA1A16112
:10033000123A4040207A3854545559215555794144
:100340002154547841215554784020545579400C1B
:100350001E527212395555555939545454593955FC
:100360005454580000457C410002457D420001453F
:100370007C40F0292429F0F0282528F07C545545AC
:10038000002054547C547C0A097F4932494949323F
:100390003248484832324A4848303A4141217A3A54
:1003A00042402078009DA0A07D39444444393D401E
:1003B00040403D3C24FF2424487E4943662B2FFCCB
:1003C0002F2BFF0929F620C0887E09032054547979
:1003D000410000447D413048484A32384040227A4A
:1003E000007A0A0A727D0D19317D2629292F2826C7
:1003F0002929292630484D402038080808080808CF
:100400000808382F10C8ACBA2F102834FA00007B27
:10041000000008142A142222142A1408950022002D
:1004200095AA005500AAAA55AA55AA000000FF00E7
:10043000101010FF00141414FF001010FF00FF1024
:1004400010F010F0141414FC001414F700FF000056
:10045000FF00FF1414F404FC141417101F10101FD5
:10046000101F1414141F00101010F0000000001FC3
:10047000101010101F10101010F010000000FF10CE
:100480001010101010101010FF10000000FF1400CA
:1004900000FF00FF00001F10170000FC04F41414FC
:1004A0001710171414F404F40000FF00F7141414C8
:1004B00014141414F700F7141414171410101F1048
:1004C0001F141414F4141010F010F000001F101F6B
:1004D0000000001F14000000FC140000F010F010D9
:1004E00010FF10FF141414FF141010101F00000050
:1004F00000F010FFFFFFFFFFF0F0F0F0F0FFFFFF54
:100500000000000000FFFF0F0F0F0F0F38444438AA
:10051000447C2A2A3E147E02020606027E027E02E5
:1005200063554941633844443C04407E201E200604
:10053000027E020299A5E7A5991C2A492A1C4C7241
:1005400001724C304A4D4D303048784830BC625AC8
:10055000463D3E494949007E0101017E2A2A2A2A58
:100560002A44445F444440514A444040444A514034
:100570000000FF0103E080FF000008086B6B0836F5
:1005800012362436060F090F060000181800000066
:100590001010003040FF0101001F01011E00191D55
:1005A0001712003C3C3C3C0000000000F0F89C8E20
:1005B0008783878E9CF8F00000FEFF03030303038C
:1005C000070EFCF80000FEFF0303030303070EFC05
:1005D000F80000FFFF00000000000000FFFF000027
:1005E000FEFF8383838383C7EE7C380000F8FC0E14
:1005F00007030303070EFCF800003F7FE0C0808084
:10060000C0E07F3FFFFF01010101010101FFFF0089
:1006100000FFFF0C0C0C0C1C3E77E3C100007FFFB9
:10062000C0C0C0C0C0E0703F1F00001F3F70E0C0EE
:10063000C0C0E0703F1F00007FFFC1C1C1C1C1E366
:10064000773E1C00001F3F70E0C0C0C0E0703F1F3D
:10065000000000000001FFFF01000000D5F08D1434
:10066000A1C881CFD9F1AF20000808000000000028
:100670000000000101010101010101FF010101016F
:1006800001010101010101010101FFFF0000000062
:100690000000FFFF010101010101FFFF0000000058
:1006A00000000000000000000000FF01000000004A
:1006B0000000010100000000000000000000000038
:1006C000000001FF00000000000001010000000028
:1006D0000000FF000000000000000000000000001B
:1006E000000000000000000000000000000000000A
:1006F00000000000000000000000000000000000FA
:1007000000000000000000000000000000000000E9
:1007100000000000000000000000000000000000D9
:1007200000000000000000000000000000000000C9
:1007300000000000000000000000000000000000B9
:1007400000000000000000000000000000000000A9
:10075000000500000000000000050000000000008F
:10076000000000000000000000040000020103007F
:10077000000B010600000000000000010101010162
:100780000108010109000A0101090001010101013B
:1007900001010108087EC381898189C37E7EC389E6
:1007A000818981C37E080B00020202000009040057
:1007B00000010202000005240010010524010101CE
:1007C00004240206052406000107058103100040E9
:1007D00009040100020A00000007050202400000AF
:1007E000070583024000000403090412010002EF20
:1007F000020140412336800001010203014172647D
:1008000075696E6F204C4C430041726475626F795C
:1008100000005B0D11241FBECFEFDAE0DEBFCDBFBD
:1008200011E0A0E0B1E0E2E2F8E202C005900D9232
:10083000A034B107D9F725E0A0E4B1E001C01D92D2
:10084000A23EB207E1F714E0CAE0D4E004C0219769
:10085000FE010E940914C930D107C9F70E94780D22
:100860000C940F140C940000EEE8F1E0A0E0B8E066
:1008700000800EBC8111012C1197A0FDFDCF0192CB
:10088000B9F70DB40895FC0180918D01882311F111
:100890003FB7F89482E08093E9002091F200822F24
:1008A00090E01816190614F481E090E0882339F0DE
:1008B000289844E640938C014091F1004083222324
:1008C00039F02091F200211103C02BE62093E800BB
:1008D0003FBF08958FEF9FEF08952FB7F89483E0FF
:1008E0008093E9009091E800892F807295FF04C001
:1008F0009091F20080E4891B2FBF089580918401BC
:1009000081110DC082E08093800184E08093810199
:10091000109283011092820181E08093840180E82B
:1009200091E00895CF93DF931F92CDB7DEB769832F
:10093000DC01ED91FC910280F381E02D41E050E07B
:10094000BE016F5F7F4F09950F90DF91CF910895A2
:1009500083E08093E9008091F200882319F08AE314
:100960008093E80008950E946D0490E00895CF936D
:10097000DF931F92CDB7DEB7FC018485958597FD87
:1009800008C02FEF3FEF358724870F90DF91CF917D
:100990000895CE0101960E944304019719F48981BC
:1009A00090E0F3CF8FEF9FEFF0CF0F931F93CF9394
:1009B000DF931F92CDB7DEB78C01FC01848595854E
:1009C00097FF0BC0CE0101960E944304019771F47A
:1009D000898190E0F80195878487F8018485958561
:1009E0000F90DF91CF911F910F9108958FEF9FEF9F
:1009F000F1CFFC018485958597FD0BC09FB7F894D6
:100A000082E08093E9008091F2009FBF90E0019620
:100A100008959FB7F89482E08093E9008091F200F6
:100A20009FBF90E0089540917A0150917B01209101
:100A300078013091790142175307B4F49091E8009E
:100A40009570E1F39091E80092FD19C08093F10058
:100A500080917A0190917B0101968F739927892B60
:100A600019F48EEF8093E80080917A0190917B01D8
:100A7000019690937B0180937A0181E0089580E054
:100A80000895DF92EF92FF920F931F93CF93DF931E
:100A9000D82E8A01EB017B01E40EF51ECE15DF0591
:100AA00059F0D7FE12C0FE0184910E9413052196D1
:100AB0008111F4CF0FEF1FEFC801DF91CF911F918C
:100AC0000F91FF90EF90DF9008958881EECF0F9304
:100AD0001F93CF93DF931F92CDB7DEB782E0898358
:100AE00042E450E065EA77E080E80E9441050E9418
:100AF0007E04DC0112960D911C910115110589F0FF
:100B0000D801ED91FC910280F381E02DBE016F5F71
:100B10007F4FC801099597FD04C0F8010085118534
:100B2000ECCF89810F90DF91CF911F910F910895A4
:100B3000615030F02091F100FC0120830196F8CF44
:100B4000289884E680938C010895AF92BF92CF924B
:100B5000DF92EF92FF920F931F93CF93DF936C017D
:100B60007B018B01040F151FEB015E01AE18BF085E
:100B7000C017D10759F06991D601ED91FC91019010
:100B8000F081E02DC6010995892B79F7C501DF9128
:100B9000CF911F910F91FF90EF90DF90CF90BF907A
:100BA000AF900895FC010E946906319728F06851C2
:100BB0007C4F8F4F9F4FF9CFAB01FC010E9469061C
:100BC000641775078E079F07C8F308958F929F9249
:100BD000AF92BF92CF92DF92EF92FF920F931F934B
:100BE000CF93DF936C017B018A0180910B018823F5
:100BF00009F45AC080918D01882309F455C0809171
:100C00007F0180FF05C08091E00082608093E0005A
:100C1000E801B12C8AEFA82E93E0892E2AE3922EC8
:100C2000209711F4BB20C9F10E946D04811108C006
:100C3000AA94AA20C9F181E090E00E94D205F0CFE9
:100C40008C171D0611F00CF08C2F9FB7F894809232
:100C5000E9002091E80025FD02C09FBFE1CF282FC9
:100C600030E0C21BD30BF701815020F0419140933B
:100C7000F100FACFE20EF31EBB2021F09092E800C3
:100C8000B12CEBCF8091E80085FDE7CF9092E80092
:100C9000BB24B394209709F3F3CF5D9884E6809347
:100CA0007E01101611063CF081E090E0F60193837E
:100CB000828310E000E0C801DF91CF911F910F9176
:100CC000FF90EF90DF90CF90BF90AF909F908F906C
:100CD0000895AAE4B1E02FB7F8947D918D919C918D
:100CE00066B52FBFA89B05C06F3F18F47F5F8F4F7D
:100CF0009F4F22E0660F771F881F991F2A95D1F713
:100D000008954F925F926F927F928F929F92AF92CF
:100D1000BF92CF92DF92EF92FF920F931F93CF93E8
:100D2000DF934C015901FC2DC02FD0E0CE01880D7E
:100D3000991D181619060CF06CC020E88216910453
:100D40000CF067C09B012E0D311D121613060CF01E
:100D500060C0603471050CF05CC04115510509F4A8
:100D600058C0E62FE770FE2EDB0177FD179633E0C3
:100D7000B595A7953A95E1F73A2F77FF04C0FF2084
:100D800011F03FEF3A0F662777276819790997FC2A
:100D900002C070E060E0803891050CF44BC090E830
:100DA0009819961BA32F032E000CBB0B1A2F10951E
:100DB0003F3F0CF010E021E08E2D877009F420E019
:100DC000E694E694E694E20EAE0DB11D19971CF080
:100DD00028E0E22EE31AE11A310F20E83203D001B5
:100DE0001124A80DB91DA60FB71F019F600D711D1D
:100DF0001124460F571F0F2D0F2C000C110BF33031
:100E000009F41CC1C8F4F13009F4D0C0F23009F47F
:100E10007CC0DF91CF911F910F91FF90EF90DF90F9
:100E2000CF90BF90AF909F908F907F906F905F908A
:100E30004F900895902FB5CFFA3FB1F1232F2E0D8B
:100E4000FB3F39F7321729F3BD0162577E4FD12C92
:100E5000C12CC91608F0A4C0FA01EC0DFD1DE491E7
:100E6000F0E04F01002E02C0880C991C0A94E2F7B2
:100E700037FD06C0FB018081E82CE0948E21808341
:100E8000FF2061F0373054F45B01F0E8AF0EB11C85
:100E9000E92CE094F50180818E218083FFEFCF1A49
:100EA000DF0A6F5F7F4FD5CF232F2E0D321709F446
:100EB000B0CFBD0162577E4FD12CC12CC91608F0AE
:100EC00069C0FA01EC0DFD1DE491F0E04F01002E28
:100ED00002C0880C991C0A94E2F737FD04C0FB019C
:100EE000808188298083FF2051F0373044F45B01F2
:100EF000F0E8AF0EB11CF501808189298083FFEFF6
:100F0000CF1ADF0A6F5F7F4FD9CF6FEF70E00F2CE2
:100F100002C0660F771F0A94E2F760957095772EEE
:100F2000232F2E0D321709F474CFFD01E257FE4F27
:100F30006F01B12CA12CA91638F5FA01EA0DFB1DA1
:100F4000E491F0E02F01002E02C0440C551C0A94DD
:100F5000E2F737FD05C0F60180818623842980836E
:100F6000FF2059F037304CF44601F0E88F0E911C09
:100F7000F4018081872185298083FFEFAF1ABF0AA2
:100F80008FEFC81AD80AD7CF3F5F4C0F5D1FA0580C
:100F9000BF4FC8CF3F5F4C0F5D1FA058BF4F86CFDC
:100FA0003F5F4C0F5D1FA058BF4F4CCF6A0D7B1D9C
:100FB000232F2E0D321709F42CCFFD01E257FE4FDF
:100FC0006F01B12CA12CA91688F5FB01EA0DFB1DC0
:100FD0008490912C002E02C0880C991C0A94E2F790
:100FE00080949094FA01EA0DFB1D6490712C002E00
:100FF00002C0660C771C0A94E2F737FD05C0F601C3
:101000008081882186298083FF2049F037303CF495
:10101000F601E058FF4F8081892187298083FFEF07
:10102000AF1ABF0A8FEFC81AD80ACDCF3F5F4C0F57
:101030005D1F6C0F7D1FA058BF4FBCCFC92ED12C98
:10104000FA01E60FF71FA257BE4F00E810E00C1997
:101050001D09CC19DD09BE01660F771F41E050E084
:101060006A010F2C01C0CC0C0A94EAF7592F2E2DDF
:10107000792ECF93DF93ED01EF96EF962296859030
:10108000A590FF2059F08C9C4001AC9C500137305A
:101090002CF4E880B094EB20E928E99233233AF06D
:1010A000EC90A094EA20E828ED920C945808119650
:1010B0005A9529F72A9551F0572D33951124E60FAB
:1010C000F11DA00FB11DC00FD11DD9CFDF91CF9160
:1010D00011249FCE90E00C94D2058FB18095807F33
:1010E000669B88601C9B846008956F927F928F92AC
:1010F0009F92AF92BF92CF92DF92EF92FF920F93A7
:101100001F93CF93DF9300D01F92CDB7DEB76D3022
:1011100089F0A0904E01B0904F016A30F9F410921E
:101120005101109250019501285F3F4F30934F01BC
:1011300020934E0181E090E00F900F900F90DF918F
:10114000CF911F910F91FF90EF90DF90CF90BF90C4
:10115000AF909F908F907F906F9008950091500175
:101160001091510135E0639FF0011124E455FF4FC8
:10117000A801712C80E1682E98E0D92EDA0C75E078
:1011800060E0771621F0CF0101966491FC01C50162
:1011900040385105D0F480349105B8F4A62FA170E1
:1011A000CA2E9C0171E021FD74E020FD770F22FD25
:1011B0007295287F629ED0011124A40FA257BE4FC2
:1011C0000C90072AC0FE07260C9266950196D8124D
:1011D000DFCF73944F5F5F4F86E07812D0CF0A5F06
:1011E0001F4F1093510100935001A4CF80E00C9445
:1011F0003404089590E080E00895FC0101900020FF
:10120000E9F73197AF01481B590BBC018EED95E012
:101210000C94A5058F929F92AF92BF920F931F934C
:10122000CF93DF93CDB7DEB7A1970FB6F894DEBFAB
:101230000FBECDBF19A2423008F44AE08E010F5D07
:101240001F4F842E912CB12CA12CA50194010E943A
:10125000A411E62FB901CA01EA30F4F4E05DD80127
:10126000EE938D01232B242B252B79F790E080E042
:10127000109719F0CD010E94FD08A1960FB6F894C1
:10128000DEBF0FBECDBFDF91CF911F910F91BF90F9
:10129000AF909F908F900895E95CE1CFCF93DF935B
:1012A000BC01990F880B990B4AE00E940A09EC01D6
:1012B00081E391E00E94FD088C0F9D1FDF91CF918B
:1012C00008954F925F926F927F928F929F92AF920A
:1012D000BF92CF92DF92EF92FF920F931F93CF9323
:1012E0006B017C01742EAC019B010E9404148823C5
:1012F00099F084E391E0CF911F910F91FF90EF90CF
:10130000DF90CF90BF90AF909F908F907F906F9025
:101310005F904F900C94FD0846015701E894B7F890
:101320002FEF3FEF4FE75FE7C501B4010E940414C0
:1013300081110DC02FEF3FEF4FE75FE7C501B4010B
:101340000E94331218161CF488E391E0D4CF2FEFDB
:101350003FEF4FE75FE4C701B6010E9492131816F2
:101360001CF48CE391E0C7CF2FEF3FEF4FE75FEC2A
:10137000C701B6010E94331287FDF3CF20E030E0B1
:10138000A901C701B6010E94331210E000E087FFF7
:101390000AC06DE28EED95E00E9475088C01F7FAA7
:1013A000F094F7F8F094C0E060E070E080E09FE334
:1013B0007C1641F020E030E040E251E40E94381217
:1013C000CF5FF6CFA70196010E94C7112B013C0108
:1013D0000E94B1124B015C014AE00E940A097C01A3
:1013E000E00EF11ECC23C1F1C501B4010E94E01250
:1013F0009B01AC01C301B2010E94C6114B015C010B
:101400006EE28EED95E00E947508E80EF91EC1505F
:1014100018F120E030E040E251E4C501B4010E943F
:1014200097132B013C010E94B1124B01B12CA12C4E
:101430004AE0C501B4010E940A09E80EF91EC5017F
:10144000B4010E94E0129B01AC01C301B2010E94F1
:10145000C6114B015C01DBCFC701CF911F910F91EA
:10146000FF90EF90DF90CF90BF90AF909F908F90C4
:101470007F906F905F904F9008951F920F920FB6DC
:101480000F9211248F939F938091E1009091E1003E
:10149000937F9093E10083FF0FC01092E90091E0E9
:1014A0009093EB001092EC0092E39093ED00109279
:1014B0008D0198E09093F00082FF22C093E090931A
:1014C000E9009091F200992319F09AE39093E800D3
:1014D00090917E01992341F090917E0191509093DB
:1014E0007E01911101C05D9A90918C01992341F088
:1014F00090918C01915090938C01911101C0289A88
:1015000084FF18C08091E2008E7E81608093E200AB
:101510008091E1008F7E8093E10080917F018E7E3B
:10152000806180937F019F918F910F900FBE0F90EC
:101530001F90189580FFF7CF8091E2008E7E80612A
:101540008093E2008091E1008E7E8093E1008091A3
:101550007F018E7E8160E5CF1F920F920FB60F92B2
:101560001124CF92DF92EF92FF920F931F932F934C
:101570003F934F935F936F937F938F939F93AF931B
:10158000BF93EF93FF93CF93DF93CDB7DEB76C9705
:10159000DEBFCDBF1092E9008091E80083FF25C037
:1015A00068E0CE0145960E94980582EF8093E8009E
:1015B0008D8987FF39C09091E80090FFFCCF982F6C
:1015C000907609F034C19E894F89588D2F89F88C07
:1015D000911131C0803861F580917D018093F100D7
:1015E0001092F1008EEF8093E8006C960FB6F8949D
:1015F000DEBF0FBECDBFDF91CF91FF91EF91BF91C5
:10160000AF919F918F917F916F915F914F913F919A
:101610002F911F910F91FF90EF90DF90CF900F903F
:101620000FBE0F901F9018959EEF9093E800C7CFC4
:101630001092F100D5CF913059F48111D3CF4130C0
:10164000510581F680917D018D7F80937D01CACF08
:10165000933049F48111C6CF4130510519F680917C
:101660007D018260F2CF953041F48091E80080FFE7
:10167000FCCF20682093E300B5CF963009F0A9C0D5
:101680000B8D1C8D22E01092E90010927B011092CC
:101690007A01F2122EC010927901109278010E9404
:1016A00067051F8299E09983FA8291E09E8390EA10
:1016B00098879AEF998720917A0130917B01275F73
:1016C0003F4F3C832B838D831092E90010927B0166
:1016D00010927A01109379010093780149E050E06B
:1016E000BE016F5F7F4F80E00E9441050E94670549
:1016F00079CF10937901009378010E947E04DC0178
:1017000012960D911C910115110509F451C1D801D2
:10171000ED91FC910480F581E02DBE016B5E7F4F61
:10172000C8010995009709F03EC1F80100851185AF
:10173000EACFF3E0FF120EC08F89882309F440C07E
:10174000823061F440E867E089E098E00E94280D6B
:10175000811148CF81E28093EB0047CF813029F49B
:1017600040E86BE08DEF97E0F1CF833099F70E946E
:101770007E04DC011296ED90FC908E010F5F1F4FEE
:101780006801E114F10479F0D701ED91FC91068034
:10179000F781E02DB801C7010995080F111DF70168
:1017A000E084F184EECFD8011C92F6010190002074
:1017B000E9F73197BF016C197D0940E0C601C6CF3A
:1017C00067EE77E0FB01449150E080E80E9441051C
:1017D00009CF973009F4BECF983021F481E080938F
:1017E000F10000CF993009F0FDCE837009F0B2CF3F
:1017F000EDE0F1E081E031E096E32191222371F008
:101800008093E9003093EB00DF0111972C91209336
:10181000EC009093ED008F5F873079F78EE780932F
:10182000EA001092EA008F8980938D01DBCE8B8DC8
:101830009C8D1092E90010927B0110927A01909396
:10184000790180937801898D811192C08E899D895B
:10185000913A49F4813209F07DCF47E050E064E0ED
:1018600071E080E0B3CF913209F074CF833269F434
:101870008F89988DB0E0A0E08093000190930101E2
:10188000A0930201B0930301ADCE803269F4809140
:10189000E80082FFFCCF67E084E091E00E949805B9
:1018A0008BEF8093E8009ECE823209F09BCE8F8929
:1018B00080930B01EEEFFFE7859194918B3F9C4D58
:1018C00051F1E0E0F8E08091040190910501A091D0
:1018D0000601B0910701803B9440A105B105F1F4E8
:1018E00080910B0180FD1AC0EE3F8AE0F80789F570
:1018F00087E797E7918380838091600080937C01E4
:1019000088E19BE00FB6F894A895809360000FBE25
:101910009093600067CEEEEFFAE0D5CF80819181A1
:101920008737974709F05ECEA8958091600088615F
:101930008093600080917C0180936000EE3F2AE0FC
:10194000F20789F08091FE0A9091FF0A91838083CB
:1019500049CE808191818737980751F29093FF0A91
:101960008093FE0AC5CF1092FF0A1092FE0A3ACE6B
:101970000E947E04DC0112960D911C910115110547
:1019800009F4E8CED801ED91FC910190F081E02DB1
:10199000BE016B5E7F4FC8010995811123CEF8010E
:1019A00000851185EBCF181619060CF41BCED2CE8C
:1019B000F1E0FF12BECE6BEE77E004CF0F920FB6D0
:1019C0008F939F93EF93FF93809149018D5F8D37A4
:1019D00008F08D5780934901E4E7F1E080818E4F54
:1019E000808391819F4F918382818F4F82838381F6
:1019F0008F4F8383EAE4F1E080818F5F8083818170
:101A00008F4F818382818F4F828383818F4F838326
:101A10008FB18F6066991C9B88278F3681F48091E7
:101A20004801981B963068F0E0E0F8E087E7808393
:101A3000818388E180936000F0936000FFCF9093F2
:101A40004801FF91EF919F918F910FBE0F901895D4
:101A5000EF92FF920F931F93CF93DF93F82E192FDE
:101A6000E62E042F81E0860F880F0E94130583E085
:101A70000E941305CF2DD12FEC0EFD2EF11CCE159B
:101A8000DF05B9F007FF13C0FE0184910E94130522
:101A9000182F80E00E941305812321968111EFCF3A
:101AA000DF91CF911F910F91FF90EF900895888162
:101AB000EDCF81E0F5CFEEE8F5E01382128288EEFB
:101AC00093E0A0E0B0E084839583A683B78387E1A9
:101AD00091E0918380838FEF9FEF95878487EEED70
:101AE000F5E01382128289E291E091838083089568
:101AF000789483E084BD83E085BD81E080936E00AF
:101B0000E1E8F0E083E08083E0E881E08083E1E9E0
:101B100083E08083E0E981E08083E1EC87E08083FB
:101B2000E3EC81E08083E0EC82E08083E2EC81E022
:101B30008083EAE787E080838068808310928D014C
:101B400010927D0110927F018091D7008160809377
:101B5000D70080EA8093D80089B5806189BD89B5B6
:101B6000826089BD09B400FEFDCF81E090E00E9453
:101B7000D2058091D8008F7C80618093D8008091BD
:101B8000E000807F8093E0008091E1008E7E809372
:101B9000E1008DE08093E200559A209A81EC8093D9
:101BA0007C0081EF85B987EE84B982E38BB982EF3F
:101BB0008AB9769A6E9880EF81BB10BA80E58CBDA9
:101BC00081E08DBD85E00E946A085F9A85E00E94F1
:101BD0006A085C98ECE5F6E085918EBD00000DB4D6
:101BE00007FEFDCFE936C1F75C9A81E88093640077
:101BF00081E0809365000E94F6080E946D0887FFCF
:101C000015C05C9885EA8EBD00000DB407FEFDCFBF
:101C10005C9A2E982F982D98809164008062809312
:101C2000640081E083BF889513BEFCCF0E946D08DD
:101C300082FF37C02D980E946D0884788438A1F403
:101C40002D9A88EC0E946A082F986FEF82E090E04E
:101C50000E94921184EF91E00E94D2052F9A0E9477
:101C60006D0884788438D9F30E946D0884718431BA
:101C7000A1F42D9A88EC0E946A082E9860E082E018
:101C800090E00E94921184EF91E00E94D2052E9A7A
:101C90000E946D0884718431D9F388EC0E946A082F
:101CA000C5CF2D9A82E090E00E948A11882369F1C5
:101CB0003E9A3F9A81E090E00E948A11082F0470BA
:101CC00081FF0AC001112E98C1EFDFEF0E946D085D
:101CD00086FF1EC02E9A2F9A82E30E946A080E94F5
:101CE0006D088111F9CF50E7252E51E0352EC091B6
:101CF0007201CC2309F4A6C01092720180E090E03A
:101D0000892BA9F30E940000F2CF3E983F98D2CFD2
:101D1000002329F0C430D10511F42E9A2F9881E0C8
:101D20000E9434041C2F1770712EAE0163E055958C
:101D300047956A95E1F7CA019695982F8827979558
:101D4000879582579E4F70E060E04E3F2FEF52071D
:101D500069F130E020E0DB01A455BA4F5C01E0E816
:101D6000AE0EB11CFD01E20FF31FE491F0E02F0174
:101D7000072C02C0440C551C0A94E2F74F3F54074D
:101D800039F04C01820E931EF401E488E428E48AC1
:101D9000772039F04501820E931EF401148915292C
:101DA000148B2F5F3F4F28353105E1F64F5F5F4FB2
:101DB00080589F4F685A7F4F603B710531F60E94F3
:101DC000F6088FE00E946A082196C931D10509F012
:101DD0007DCF002311F02F9A2D9880E991E00E9489
:101DE000D2052D9A81E090E00E948A1180FF74CF85
:101DF0008AE090E00E948A119FEF980F9E3F08F0C2
:101E00006BCF22E330E0309351012093500128E35F
:101E100030E030934F0120934E01CBE0D0E0682FAB
:101E20008EED95E00E947508CE010E948A112196E0
:101E3000C131D105A1F70E94F60888EE93E00E9417
:101E4000D2054ACF8091740190917301F82FF91B4C
:101E5000F03140F4FF3009F451CF81E083BF889521
:101E600013BE4CCFD1E0D093720180937301F10186
:101E70008081918101968083918310916D011093EF
:101E80006E010E946D08282F80936D01EEE8F1E04D
:101E9000C111CFEF8FEFC193C193C193C193815013
:101EA000D0F710924F0110924E01109251011092F2
:101EB000500180916F01882329F0813051F00E94F8
:101EC000F6081CCF13FDFBCF23FFF9CFD0936F0192
:101ED000F6CFD0E0C0E0BE010D2E000C880B990BB0
:101EE0000E94E21220915601309157014091580111
:101EF000509159010E94C6110E94AA122B01685FDD
:101F00007F4F6934710508F061C05E01AA0CBB1CEB
:101F1000AC0EBD1E712C612C912C812CC5018D52F3
:101F2000994F5C01B301072C000C880B990B0E94A0
:101F3000E21220915201309153014091540150918D
:101F400055010E94C6110E94AA12CB019B01285F75
:101F50003F4F2938310578F5F501E80DF91D6491F9
:101F6000E9E6F6E00491EAE6F6E0E4904BE656E0B6
:101F70006623D1F021E030E04E2D477011F430E0BF
:101F800020E04E2D469546954695420F532F511D04
:101F9000049F9001059F300D1124629FA001639F53
:101FA000500D11244559594F32E0C32E30E020E046
:101FB000B2010E948106FFEF8F1A9F0A18E0610E9E
:101FC000711C28E18216910409F0ACCF2896C03428
:101FD000D10509F080CF0E946D0886FF18C02AE95C
:101FE00039E949E15EE36091650170916601809194
:101FF0006701909168010E94C71160936501709319
:102000006601809367019093680110925C010E94C1
:102010006D0885FF19C02AE939E949E15EE360915D
:1020200065017091660180916701909168010E943D
:10203000C611609365017093660180936701909368
:10204000680181E080935C016091520170915301BD
:10205000809154019091550142E00E94610981E311
:1020600091E00E94FD0860915D0170915E01809198
:102070005F019091600142E00E94610981E391E07B
:102080000E94FD0880915A0190E00E944E098091C3
:102090005B0190E00E944E0920E030E0A9016091D0
:1020A000690170916A0180916B0190916C010E94AD
:1020B000C7114B015C018092690190926A01A09264
:1020C0006B01B0926C012FE135E84BE65FE3609164
:1020D00065017091660180916701909168010E948D
:1020E00097136093650170936601809367019093E5
:1020F000680120915D0130915E0140915F01509136
:1021000060010E94C7112B013C0140925D01509279
:102110005E0160925F0170926001209161013091D7
:1021200062014091630150916401C501B4010E94B4
:10213000C7114B015C018092610190926201A092F3
:102140006301B092640120E030E048E652E4C3014C
:10215000B2010E943312811114C080915A01811181
:1021600010C080915B0181110CC080E090E0A8E676
:10217000B2E480935D0190935E01A0935F01B09300
:102180006001C501B4010E94AA124B0160915D017A
:1021900070915E0180915F01909160010E94AA128E
:1021A000CB01E3E9F7E00491E4E9F7E0E490209162
:1021B0005C0145E957E02223A1F021E030E04E2DFB
:1021C000477011F430E020E04E2D46954695469537
:1021D000240F311D029FA001039F500D11244B5667
:1021E000584F22E0C22E30E020E0B4010E94810668
:1021F0008090520190905301A0905401B0905501ED
:1022000020E030E0A901C501B4010E943312181684
:102210000CF46AC081E080935A0120E030E040E88D
:1022200052E4C501B4010E94921387FF67C020E009
:1022300030E048E652E460915D0170915E0180916A
:102240005F01909160010E94921387FF60C08091AE
:102250005B01882391F020E030E048E652E4609191
:102260005D0170915E0180915F01909160010E941B
:102270003312181614F010925B0180915A018111EB
:102280001ECE80915B0181111ACEA501940160914F
:1022900065017091660180916701909168010E94CB
:1022A000C71160935201709353018093540190932E
:1022B00055012091690130916A0140916B01509163
:1022C0006C01609156017091570180915801909175
:1022D00059010E94C7116093560170935701809372
:1022E000580190935901EBCD20E030E040E852E4F2
:1022F000C501B4010E94921387FD03C081E0809361
:102300005B0180915A01882309F4A1CF90CF1092EC
:102310005A019DCFF999FECF92BD81BDF89A9927B8
:1023200080B50895262FF999FECF92BD81BDF89A08
:10233000019700B4021639F01FBA20BD0FB6F89409
:10234000FA9AF99A0FBE0895A1E21A2EAA1BBB1B96
:10235000FD010DC0AA1FBB1FEE1FFF1FA217B30771
:10236000E407F50720F0A21BB30BE40BF50B661F87
:10237000771F881F991F1A9469F76095709580954B
:1023800090959B01AC01BD01CF0108955058BB272A
:10239000AA270E94DE110C9458130E944A1338F0A9
:1023A0000E94511320F039F49F3F19F426F40C9445
:1023B00047130EF4E095E7FB0C944113E92F0E94BC
:1023C000691358F3BA17620773078407950720F05B
:1023D00079F4A6F50C948B130EF4E0950B2EBA2F1E
:1023E000A02D0B01B90190010C01CA01A00111241B
:1023F000FF27591B99F0593F50F4503E68F11A16C7
:10240000F040A22F232F342F4427585FF3CF469557
:1024100037952795A795F0405395C9F77EF41F1679
:10242000BA0B620B730B840BBAF09150A1F0FF0F43
:10243000BB1F661F771F881FC2F70EC0BA0F621F2F
:10244000731F841F48F4879577956795B795F7951F
:102450009E3F08F0B0CF9395880F08F09927EE0FB4
:102460009795879508950E941D1308F481E00895BB
:102470000E944C120C9458130E94511358F00E9461
:102480004A1340F029F45F3F29F00C944113511195
:102490000C948C130C9447130E94691368F39923CE
:1024A000B1F3552391F3951B550BBB27AA27621750
:1024B0007307840738F09F5F5F4F220F331F441F5D
:1024C000AA1FA9F335D00E2E3AF0E0E832D0915091
:1024D0005040E695001CCAF72BD0FE2F29D0660F7E
:1024E000771F881FBB1F261737074807AB07B0E8C1
:1024F00009F0BB0B802DBF01FF2793585F4F3AF0C7
:102500009E3F510578F00C9441130C948C135F3F5F
:10251000E4F3983ED4F3869577956795B795F7954C
:102520009F5FC9F7880F911D9695879597F9089534
:10253000E1E0660F771F881FBB1F621773078407D0
:10254000BA0720F0621B730B840BBA0BEE1F88F7DF
:10255000E09508950E94B1126894B1110C948C1307
:1025600008950E94711388F09F5798F0B92F99270A
:10257000B751B0F0E1F0660F771F881F991F1AF06E
:10258000BA95C9F714C0B13091F00E948B13B1E035
:1025900008950C948B13672F782F8827B85F39F034
:1025A000B93FCCF3869577956795B395D9F73EF407
:1025B00090958095709561957F4F8F4F9F4F0895AF
:1025C000E89409C097FB3EF49095809570956195CD
:1025D0007F4F8F4F9F4F9923A9F0F92F96E9BB2783
:1025E0009395F695879577956795B795F111F8CFFF
:1025F000FAF4BB0F11F460FF1BC06F5F7F4F8F4F6A
:102600009F4F16C0882311F096E911C0772321F05F
:102610009EE8872F762F05C0662371F096E8862FF7
:1026200070E060E02AF09A95660F771F881FDAF74E
:10263000880F9695879597F90895990F0008550F7B
:10264000AA0BE0E8FEEF16161706E807F907C0F038
:1026500012161306E407F50798F0621B730B840B40
:10266000950B39F40A2661F0232B242B252B21F41A
:1026700008950A2609F4A140A6958FEF811D811DBA
:10268000089597F99F6780E870E060E008959FEFF4
:1026900080EC089500240A941616170618060906F9
:1026A000089500240A9412161306140605060895C8
:1026B000092E0394000C11F4882352F0BB0F40F450
:1026C000BF2B11F460FF04C06F5F7F4F8F4F9F4F90
:1026D000089557FD9058440F551F59F05F3F71F012
:1026E0004795880F97FB991F61F09F3F79F0879579
:1026F0000895121613061406551FF2CF4695F1DF02
:1027000008C0161617061806991FF1CF8695710591
:10271000610508940895E894BB2766277727CB01C5
:1027200097F908950E941D1308F48FEF08950E94F1
:10273000AA130C9458130E944A1338F00E945113A4
:1027400020F0952311F00C9441130C94471311249D
:102750000C948C130E94691370F3959FC1F3950F2D
:1027600050E0551F629FF001729FBB27F00DB11D15
:10277000639FAA27F00DB11DAA1F649F6627B00DA5
:10278000A11D661F829F2227B00DA11D621F739F8E
:10279000B00DA11D621F839FA00D611D221F749F9C
:1027A0003327A00D611D231F849F600D211D822FE3
:1027B000762F6A2F11249F5750409AF0F1F088230A
:1027C0004AF0EE0FFF1FBB1F661F771F881F915037
:1027D0005040A9F79E3F510580F00C9441130C9492
:1027E0008C135F3FE4F3983ED4F386957795679515
:1027F000B795F795E7959F5FC1F7FE2B880F911D61
:102800009695879597F908950E941D13880B990B4B
:102810000895EE0FFF1F0590F491E02D0994F894B0
:10282000FFCFFFFFFFFF00E100000000000000C13C
:102830008081000000000000009204E605B304A8B7
:1028400004F904B704D504000000007508A505FAD2
:1028500008F9080D0A006E616E00696E66006F76F9
:02286000660010
:1074000080E189BD82E189BD09B400FEFDCF089508
:10741000CAD569F08091E9008F931092E9009FD45A
:1074200083FF01C01ED58F9187708093E900089576
:107430008EEF0090E10008220092E1000895F20131
:10744000F999FECFF2BDE1BD0895F9DFF89A80B554
:1074500008C0F5DF1FBA80BD0FB6F894FA9AF99A02
:107460000FBE31962F010895E0E0F0E085919491F0
:107470000196089580EE8BB98BEA34D01092890082
:107480008AEF8093880082E080936F0083E080938E
:107490008100E7E5F7E785913AD0E336E1F781E04F
:1074A0008093D7008AE482BF1092D8001092E20045
:1074B0001092DA001092E10080E808D019BC1EBAE0
:1074C0001092E00062D489E053D481E98093D8001F
:1074D0000895A3E6B1E090E81AD08D939A95E1F76C
:1074E000089586E008D010C083E005D08F2F0FD01C
:1074F0008E2F0DD080E05E9A599809C005D085E0A6
:10750000FADF05D080FDFDCF599A5E9808958EBDB3
:107510008DB587FFFDCF8EB508958FE08221E9F705
:10752000F3DFE3E6F6E090EB5C98892FF0DF80E193
:10753000EEDF5C9A8191EBDF83E68E278F77D1F7C0
:107540009395983B89F70895E3E6F1E097FC36C000
:1075500094FC4DC092FE089596849920D1F3F8943E
:10756000C089D78520E030E080E090E4AFEFBFEF46
:10757000119689199040E0F72D01BD4F8D0127FD2F
:1075800013C0E0E0F8E011928EE7819392E4E117F6
:1075900091939AE508F092E4E334C9F7819310825D
:1075A000BFDFFE012196A0DF94DFF901FFD4205850
:1075B0003F4F040D151D9A9411F712C28301282D17
:1075C00060906C0170906B0143D019F48823C1F76F
:1075D0000895380188243CD0C9F580916A0182174A
:1075E00009F4830160906E0170906D01F4CF80E129
:1075F000982E60906E0170906D012AD059F4882306
:10760000B1F708959FEF95FC03C096FE089591E0B1
:1076100097FB890E662477248301222719D0B1F4C1
:107620008823A1F380916A0136F0881650F48217FE
:1076300030F0213003C0881520F4281710F483019E
:10764000282F60906E0170906D01E8CF3801822E76
:10765000F3014ADF3EDFC3E6D1E0E0E5F7E709905A
:107660008591081621F4E735D1F7088080104CCFBA
:10767000C9E031DFCA95E9F7D0E197FC55C094FC29
:1076800037C096FE1AC0C3E6D2E0E3E6F6E098E023
:1076900088E78E0F00840192E817E1F7884F099080
:1076A0000192E817E1F7C858DF4F9A9589F735DF5F
:1076B000C85FD340C33E49F749C0C3E6D6E0EBE517
:1076C000FAE098E08E2F885702900086E817E1F7DD
:1076D00038960A900292E817E1F73897C857D040D9
:1076E0009A9581F71ADFC850DC4FC33E41F72EC090
:1076F000A3EEB6E0E3E6F6E09AE0C6E00D90808106
:107700008025807F802582958193A336B90709F46F
:10771000B2E0E336F90709F4F2E0E336FC0771F76B
:10772000FCDEDA9529F712C0A3EEB9E0E3E6FAE051
:1077300092E00E90829180258F70802582958083C3
:10774000E336F907B1F7E9DEDA9571F7882708958E
:1077500041524455424F59D5F08D14A1C881CFD91B
:10776000F1AF000000FFFFCFCFFFFFFFFFCFCFFF44
:10777000FF0000FE067E7E06FE46565616FE0656A4
:10778000461EFE3F61E9E3FFE3EBE3FFE3EBE3FFCC
:10779000E16B3F0012011001020000084123360096
:1077A00001000000000109023E00020100803209D0
:1077B000040000010202010005240010010424025B
:1077C000040524060001070582030800FF090401DF
:1077D00000020A00000007050402100001070583EB
:0477E0000210000192
:1078000011241FBE04B714BE88E18093600010925B
:1078100060008EEF9AE09EBF8DBF222433242101A9
:107820003101410180E88AC00F928F939F931F928C
:107830000FB60F9211244F936F938091DA0080FF5F
:1078400037C023C00F920FB68F939F93EF93FF9390
:1078500088278093850080938400E0E5F1E09281A1
:10786000907261F490818917980B908309F45D9A66
:1078700091818917980B918309F4289A239411F424
:107880008315381EFF91EF9154C08091D80080FF7E
:107890000FC08091DA008E7F8093DA008091D9004A
:1078A00080FF04C0ADDD81E08EBB02C019BC1EBAF2
:1078B0008091E10080FF0BC055D280FF08C055D2F7
:1078C0008091D800806202DE19BC85E08EBB809179
:1078D000E10084FF1AC046D284FF17C091DD809179
:1078E000D8008F7DF3DD8FEEA4DD3CD28F7E8160EA
:1078F0003FD280915301882331F48091E30087FDCA
:1079000002C081E001C084E08EBB8091E10083FF72
:107910000CC028D283FF09C087EF8BDD82E08EBBCD
:107920001092530185DD21D230D26F914F910F908B
:107930001F909F918F910FBE0F90189580936100BB
:1079400010926100B1E0B5BF82E085BF81EF85B9DB
:1079500087EE84B91DB8769A10BA83EF81BB82E6B0
:107960008BB982EF8AB980E58CBDBDBDA0E0E4E9AA
:10797000F7E705900D92A035E1F71D92BB30E9F7CE
:1079800001FD06C0000004C07C9B02C06DDD41F516
:1079900071DD78945DDE71F0ABE9B7E0E3E6F7E71F
:1079A00090E105900D929A95E1F7A059BF4FE33908
:1079B000B9F7B7DD52D02CDD80915201807861F4A7
:1079C0008FB18095807F66991C9B8460982E1ADE0B
:1079D0008110BADD92FC02C0332062F745DD51F31D
:1079E000F89489EB7FDD81E08093E00010926F00D6
:1079F00010928100109285001092840081E085BF72
:107A000015BE2E9A2F9A2D9A5D9A289A0C940000F2
:107A1000A4D107C057D102C0C6D239F0A0D182FF8D
:107A2000FBCF85FFF7CF8091F1000895082E83E00A
:107A300095D185FD07C08AD102C0B5D269F08FD13A
:107A400080FFFBCF0092F10080915201807221F4FF
:107A50005D9884E68093500108957FD182FF34C100
:107A600080915201807221F4289884E6809351011C
:107A7000CFDF182F853431F422248EE7382EDFDC57
:107A80008DE00BC1843511F4C3DFFACF8C34C1F320
:107A90008035B1F3843721F484E4C8DF80E0FDC091
:107AA000813611F489E5F9C0813429F4B1DF582E0B
:107AB000AFDF482EE5CF803711F483E5EEC0833584
:107AC00039F4E0E5F7E78591B1DFE735E1F7E6C0A6
:107AD000863521F481E3AADF89E3DFC0863761F4CC
:107AE00081E3669B8E5F1C9B8F5FA0DF8FB18095CB
:107AF00082958F708F5BD1C08837A9F489DF80931E
:107B00005201289A84FD28985D9A83FD5D982E9AEB
:107B100081FD2E982F9A82FD2F982D9A80FD2D9809
:107B200087FD8824ADCF8A3649F48FE9E4DCC3E0D1
:107B3000EEDC7CDFCA95E1F7E7DCB0C0833731F4D7
:107B400087E874DF85E972DF8EE1A7C0853639F4F6
:107B5000E0E8F3E73ED2E058F040E0F791CF82361C
:107B600031F489E563DF80E061DF80E896C082342C
:107B700019F0873609F07DC033244ADFD82F48DF5B
:107B8000C82F46DF082F8354843008F085C00634A0
:107B900011F4440C551CF20110926F001736B9F421
:107BA000033489F483E0A1DCB2DC8EB51EBC3EDF79
:107BB0000DB42197D1F7A8DC08C0063411F48591E3
:107BC00001C043DC33DF2197C2F72F014AC00334E1
:107BD000A9F4E11104C085DC88ED87DC8FDC81DC51
:107BE00082E083DC15DF0DB48EBDCA95D9F73196DE
:107BF0008FDC84DCDA9569F72F0131C00634F1F4AB
:107C00009F01F437D8F4E5D119C002DF063461F4DE
:107C1000C0FB46F0F43728F4182E81E087BFE895C2
:107C200011243296082E0AC0043439F4DF01B370EF
:107C3000AD59B94F8D93319601C00BDC21972AF7CE
:107C4000043431F42F01F370FE2B49F46ADC07C0D1
:107C5000063429F42F01F901F43708F4B8D18DE086
:107C6000E5DE063411F45694479482E080936F0069
:107C700015C08237E1E049F08634E0E031F08E341F
:107C8000E3E019F0813531F4E2E0F0E089E087BF0C
:107C9000849103C08B3111F08FE3C8DE83E0C5DB34
:107CA00055D095FF03C009C07ED171F058D080FF38
:107CB000FBCF4CD002C077D139F051D080FFFBCF41
:107CC00084E0B3DB8BE743C00895E4E5F1E067E0CF
:107CD00090915B0180915C01913231F0913AE1F534
:107CE0008132D1F55ED181C0823271F48191805BA5
:107CF0008191844089F580915D0180FD2DC0F894CB
:107D000081E08093E0007CCD803231F54AD14BD1C7
:107D1000E9F08530D9F023D083FD18C082FFF7CF7A
:107D200004C081DE8193615031F09091F300809125
:107D3000F200892BB1F7C6DF611549F704C033D1D2
:107D400029F0853019F00BD080FFF9CF8EE79091A4
:107D5000E80089238093E800089584E066DB809141
:107D6000E80008958091E2000895FCDF8E7F806135
:107D70008093E200089582E061EC09D083E061E83D
:107D800002D084E060E842E103C080E060E042E0CD
:107D90004CDB81E007D01092ED006093EC00409343
:107DA000ED0008959091EB00892B8093EB000895EE
:107DB00060E0923029F0913029F4E0E062E102C005
:107DC000E2E16EE3F1E0089580915B0188234CF4D9
:107DD00002C0E9D0C1F3C3DF82FFFBCF73CFE3D092
:107DE00091F3BDDF80FFFBCFB1CF40916101509196
:107DF00062014617510520F0462F611509F4A6DFF0
:107E000050E022C0D0D061F1853051F1A8DF83FD70
:107E100059CFA5DF82FD21C080FF16C03091F3004D
:107E20002091F20006C081918093F10041502F5FB4
:107E30003F4F411519F028303105A8F350E02830A4
:107E4000310509F451E082DF4115E1F65523D1F601
:107E500004C0A9D029F0853019F081DF82FFF9CF65
:107E600031CFEBE5F1E0DFDD8193E336E1F72DDFA4
:107E700076DF83FF91C080915B0190915C0191302E
:107E800009F170F09330F1F0953009F444C0963068
:107E900009F456C0983009F460C0993059F767C0AA
:107EA000823841F780915F01BFDA2091EB00109298
:107EB000E90077D02295269521702093F100109249
:107EC000F10052C0882311F08230A1F68F71823008
:107ED00089F680915D018823D1F420915F0127709C
:107EE00049F22093E9008091EB0080FF10C09330AD
:107EF00011F480E20BC080E155DF81E0880F2A9504
:107F0000E9F78093EA001092EA0088E04BDF1092D4
:107F1000E90047D02AC0882391F410915D011068D0
:107F20000FB7F8943ED050DF1ADF80FFFDCF1093DB
:107F3000E300103883E009F482E08EBB0FBF2CC051
:107F40008058823048F580915D0190915E0130DF6C
:107F5000603011F126D049DF1FC08038E9F421D00C
:107F6000809153018093F100F1DE2EDF15C088234C
:107F700099F490915D01923078F49093530111D06F
:107F800023DF80915301882321F48091E30091E065
:107F900087FD94E09EBBEFDEE2DE83FF089580E282
:107FA00001DF87EFD4CE8EB388230895A3E6B1E036
:107FB000F437B8F40ED090E40D901D9081E087BFA7
:107FC000E89532969A95C1F71124E058F04085E083
:107FD00001C083E001D081E187BFE89507B600FCCE
:047FE000FDCF089534
:067FFA003139D9CFFBDC98
:00000001FF
